{
  "contractName": "MariesCyborgs",
  "abi": [
    {
      "inputs": [
        {
          "internalType": "string",
          "name": "_name",
          "type": "string"
        },
        {
          "internalType": "string",
          "name": "_symbol",
          "type": "string"
        },
        {
          "internalType": "string",
          "name": "_initBaseURI",
          "type": "string"
        }
      ],
      "stateMutability": "nonpayable",
      "type": "constructor"
    },
    {
      "anonymous": false,
      "inputs": [
        {
          "indexed": true,
          "internalType": "address",
          "name": "owner",
          "type": "address"
        },
        {
          "indexed": true,
          "internalType": "address",
          "name": "approved",
          "type": "address"
        },
        {
          "indexed": true,
          "internalType": "uint256",
          "name": "tokenId",
          "type": "uint256"
        }
      ],
      "name": "Approval",
      "type": "event"
    },
    {
      "anonymous": false,
      "inputs": [
        {
          "indexed": true,
          "internalType": "address",
          "name": "owner",
          "type": "address"
        },
        {
          "indexed": true,
          "internalType": "address",
          "name": "operator",
          "type": "address"
        },
        {
          "indexed": false,
          "internalType": "bool",
          "name": "approved",
          "type": "bool"
        }
      ],
      "name": "ApprovalForAll",
      "type": "event"
    },
    {
      "anonymous": false,
      "inputs": [
        {
          "indexed": true,
          "internalType": "address",
          "name": "_from",
          "type": "address"
        },
        {
          "indexed": true,
          "internalType": "uint256",
          "name": "mintAmount",
          "type": "uint256"
        }
      ],
      "name": "MintEvent",
      "type": "event"
    },
    {
      "anonymous": false,
      "inputs": [
        {
          "indexed": true,
          "internalType": "address",
          "name": "previousOwner",
          "type": "address"
        },
        {
          "indexed": true,
          "internalType": "address",
          "name": "newOwner",
          "type": "address"
        }
      ],
      "name": "OwnershipTransferred",
      "type": "event"
    },
    {
      "anonymous": false,
      "inputs": [
        {
          "indexed": true,
          "internalType": "address",
          "name": "from",
          "type": "address"
        },
        {
          "indexed": true,
          "internalType": "address",
          "name": "to",
          "type": "address"
        },
        {
          "indexed": true,
          "internalType": "uint256",
          "name": "tokenId",
          "type": "uint256"
        }
      ],
      "name": "Transfer",
      "type": "event"
    },
    {
      "inputs": [],
      "name": "EbisusbayMemberPrice",
      "outputs": [
        {
          "internalType": "uint256",
          "name": "",
          "type": "uint256"
        }
      ],
      "stateMutability": "view",
      "type": "function",
      "constant": true
    },
    {
      "inputs": [
        {
          "internalType": "address",
          "name": "",
          "type": "address"
        }
      ],
      "name": "addressMintedBalance",
      "outputs": [
        {
          "internalType": "uint256",
          "name": "",
          "type": "uint256"
        }
      ],
      "stateMutability": "view",
      "type": "function",
      "constant": true
    },
    {
      "inputs": [
        {
          "internalType": "address",
          "name": "to",
          "type": "address"
        },
        {
          "internalType": "uint256",
          "name": "tokenId",
          "type": "uint256"
        }
      ],
      "name": "approve",
      "outputs": [],
      "stateMutability": "nonpayable",
      "type": "function"
    },
    {
      "inputs": [
        {
          "internalType": "address",
          "name": "owner",
          "type": "address"
        }
      ],
      "name": "balanceOf",
      "outputs": [
        {
          "internalType": "uint256",
          "name": "",
          "type": "uint256"
        }
      ],
      "stateMutability": "view",
      "type": "function",
      "constant": true
    },
    {
      "inputs": [],
      "name": "baseExtension",
      "outputs": [
        {
          "internalType": "string",
          "name": "",
          "type": "string"
        }
      ],
      "stateMutability": "view",
      "type": "function",
      "constant": true
    },
    {
      "inputs": [],
      "name": "baseURI",
      "outputs": [
        {
          "internalType": "string",
          "name": "",
          "type": "string"
        }
      ],
      "stateMutability": "view",
      "type": "function",
      "constant": true
    },
    {
      "inputs": [],
      "name": "ebisusbayFee",
      "outputs": [
        {
          "internalType": "uint256",
          "name": "",
          "type": "uint256"
        }
      ],
      "stateMutability": "view",
      "type": "function",
      "constant": true
    },
    {
      "inputs": [],
      "name": "ebisusbayWallet",
      "outputs": [
        {
          "internalType": "address",
          "name": "",
          "type": "address"
        }
      ],
      "stateMutability": "view",
      "type": "function",
      "constant": true
    },
    {
      "inputs": [
        {
          "internalType": "uint256",
          "name": "tokenId",
          "type": "uint256"
        }
      ],
      "name": "getApproved",
      "outputs": [
        {
          "internalType": "address",
          "name": "",
          "type": "address"
        }
      ],
      "stateMutability": "view",
      "type": "function",
      "constant": true
    },
    {
      "inputs": [
        {
          "internalType": "address",
          "name": "owner",
          "type": "address"
        },
        {
          "internalType": "address",
          "name": "operator",
          "type": "address"
        }
      ],
      "name": "isApprovedForAll",
      "outputs": [
        {
          "internalType": "bool",
          "name": "",
          "type": "bool"
        }
      ],
      "stateMutability": "view",
      "type": "function",
      "constant": true
    },
    {
      "inputs": [],
      "name": "maxMintAmount",
      "outputs": [
        {
          "internalType": "uint256",
          "name": "",
          "type": "uint256"
        }
      ],
      "stateMutability": "view",
      "type": "function",
      "constant": true
    },
    {
      "inputs": [],
      "name": "maxSupply",
      "outputs": [
        {
          "internalType": "uint256",
          "name": "",
          "type": "uint256"
        }
      ],
      "stateMutability": "view",
      "type": "function",
      "constant": true
    },
    {
      "inputs": [],
      "name": "memberShipAddress",
      "outputs": [
        {
          "internalType": "address",
          "name": "",
          "type": "address"
        }
      ],
      "stateMutability": "view",
      "type": "function",
      "constant": true
    },
    {
      "inputs": [],
      "name": "memberships",
      "outputs": [
        {
          "internalType": "contract ERC1155",
          "name": "",
          "type": "address"
        }
      ],
      "stateMutability": "view",
      "type": "function",
      "constant": true
    },
    {
      "inputs": [],
      "name": "name",
      "outputs": [
        {
          "internalType": "string",
          "name": "",
          "type": "string"
        }
      ],
      "stateMutability": "view",
      "type": "function",
      "constant": true
    },
    {
      "inputs": [],
      "name": "nftPerAddressLimit",
      "outputs": [
        {
          "internalType": "uint256",
          "name": "",
          "type": "uint256"
        }
      ],
      "stateMutability": "view",
      "type": "function",
      "constant": true
    },
    {
      "inputs": [],
      "name": "onlyWhitelisted",
      "outputs": [
        {
          "internalType": "bool",
          "name": "",
          "type": "bool"
        }
      ],
      "stateMutability": "view",
      "type": "function",
      "constant": true
    },
    {
      "inputs": [],
      "name": "owner",
      "outputs": [
        {
          "internalType": "address",
          "name": "",
          "type": "address"
        }
      ],
      "stateMutability": "view",
      "type": "function",
      "constant": true
    },
    {
      "inputs": [
        {
          "internalType": "uint256",
          "name": "tokenId",
          "type": "uint256"
        }
      ],
      "name": "ownerOf",
      "outputs": [
        {
          "internalType": "address",
          "name": "",
          "type": "address"
        }
      ],
      "stateMutability": "view",
      "type": "function",
      "constant": true
    },
    {
      "inputs": [],
      "name": "paused",
      "outputs": [
        {
          "internalType": "bool",
          "name": "",
          "type": "bool"
        }
      ],
      "stateMutability": "view",
      "type": "function",
      "constant": true
    },
    {
      "inputs": [
        {
          "internalType": "address",
          "name": "dest",
          "type": "address"
        }
      ],
      "name": "payments",
      "outputs": [
        {
          "internalType": "uint256",
          "name": "",
          "type": "uint256"
        }
      ],
      "stateMutability": "view",
      "type": "function",
      "constant": true
    },
    {
      "inputs": [],
      "name": "publicCost",
      "outputs": [
        {
          "internalType": "uint256",
          "name": "",
          "type": "uint256"
        }
      ],
      "stateMutability": "view",
      "type": "function",
      "constant": true
    },
    {
      "inputs": [],
      "name": "renounceOwnership",
      "outputs": [],
      "stateMutability": "nonpayable",
      "type": "function"
    },
    {
      "inputs": [
        {
          "internalType": "address",
          "name": "from",
          "type": "address"
        },
        {
          "internalType": "address",
          "name": "to",
          "type": "address"
        },
        {
          "internalType": "uint256",
          "name": "tokenId",
          "type": "uint256"
        }
      ],
      "name": "safeTransferFrom",
      "outputs": [],
      "stateMutability": "nonpayable",
      "type": "function"
    },
    {
      "inputs": [
        {
          "internalType": "address",
          "name": "from",
          "type": "address"
        },
        {
          "internalType": "address",
          "name": "to",
          "type": "address"
        },
        {
          "internalType": "uint256",
          "name": "tokenId",
          "type": "uint256"
        },
        {
          "internalType": "bytes",
          "name": "_data",
          "type": "bytes"
        }
      ],
      "name": "safeTransferFrom",
      "outputs": [],
      "stateMutability": "nonpayable",
      "type": "function"
    },
    {
      "inputs": [
        {
          "internalType": "address",
          "name": "operator",
          "type": "address"
        },
        {
          "internalType": "bool",
          "name": "approved",
          "type": "bool"
        }
      ],
      "name": "setApprovalForAll",
      "outputs": [],
      "stateMutability": "nonpayable",
      "type": "function"
    },
    {
      "inputs": [
        {
          "internalType": "bytes4",
          "name": "interfaceId",
          "type": "bytes4"
        }
      ],
      "name": "supportsInterface",
      "outputs": [
        {
          "internalType": "bool",
          "name": "",
          "type": "bool"
        }
      ],
      "stateMutability": "view",
      "type": "function",
      "constant": true
    },
    {
      "inputs": [],
      "name": "symbol",
      "outputs": [
        {
          "internalType": "string",
          "name": "",
          "type": "string"
        }
      ],
      "stateMutability": "view",
      "type": "function",
      "constant": true
    },
    {
      "inputs": [
        {
          "internalType": "uint256",
          "name": "index",
          "type": "uint256"
        }
      ],
      "name": "tokenByIndex",
      "outputs": [
        {
          "internalType": "uint256",
          "name": "",
          "type": "uint256"
        }
      ],
      "stateMutability": "view",
      "type": "function",
      "constant": true
    },
    {
      "inputs": [
        {
          "internalType": "address",
          "name": "owner",
          "type": "address"
        },
        {
          "internalType": "uint256",
          "name": "index",
          "type": "uint256"
        }
      ],
      "name": "tokenOfOwnerByIndex",
      "outputs": [
        {
          "internalType": "uint256",
          "name": "",
          "type": "uint256"
        }
      ],
      "stateMutability": "view",
      "type": "function",
      "constant": true
    },
    {
      "inputs": [],
      "name": "totalSupply",
      "outputs": [
        {
          "internalType": "uint256",
          "name": "",
          "type": "uint256"
        }
      ],
      "stateMutability": "view",
      "type": "function",
      "constant": true
    },
    {
      "inputs": [
        {
          "internalType": "address",
          "name": "from",
          "type": "address"
        },
        {
          "internalType": "address",
          "name": "to",
          "type": "address"
        },
        {
          "internalType": "uint256",
          "name": "tokenId",
          "type": "uint256"
        }
      ],
      "name": "transferFrom",
      "outputs": [],
      "stateMutability": "nonpayable",
      "type": "function"
    },
    {
      "inputs": [
        {
          "internalType": "address",
          "name": "newOwner",
          "type": "address"
        }
      ],
      "name": "transferOwnership",
      "outputs": [],
      "stateMutability": "nonpayable",
      "type": "function"
    },
    {
      "inputs": [],
      "name": "whiteListCost",
      "outputs": [
        {
          "internalType": "uint256",
          "name": "",
          "type": "uint256"
        }
      ],
      "stateMutability": "view",
      "type": "function",
      "constant": true
    },
    {
      "inputs": [
        {
          "internalType": "address",
          "name": "",
          "type": "address"
        }
      ],
      "name": "whitelistedAddresses",
      "outputs": [
        {
          "internalType": "bool",
          "name": "",
          "type": "bool"
        }
      ],
      "stateMutability": "view",
      "type": "function",
      "constant": true
    },
    {
      "inputs": [
        {
          "internalType": "address payable",
          "name": "payee",
          "type": "address"
        }
      ],
      "name": "withdrawPayments",
      "outputs": [],
      "stateMutability": "nonpayable",
      "type": "function"
    },
    {
      "inputs": [
        {
          "internalType": "uint256",
          "name": "_mintAmount",
          "type": "uint256"
        }
      ],
      "name": "mint",
      "outputs": [],
      "stateMutability": "payable",
      "type": "function",
      "payable": true
    },
    {
      "inputs": [
        {
          "internalType": "address",
          "name": "_owner",
          "type": "address"
        }
      ],
      "name": "walletOfOwner",
      "outputs": [
        {
          "internalType": "uint256[]",
          "name": "",
          "type": "uint256[]"
        }
      ],
      "stateMutability": "view",
      "type": "function",
      "constant": true
    },
    {
      "inputs": [
        {
          "internalType": "uint256",
          "name": "tokenId",
          "type": "uint256"
        }
      ],
      "name": "tokenURI",
      "outputs": [
        {
          "internalType": "string",
          "name": "",
          "type": "string"
        }
      ],
      "stateMutability": "view",
      "type": "function",
      "constant": true
    },
    {
      "inputs": [
        {
          "internalType": "string",
          "name": "_newBaseURI",
          "type": "string"
        }
      ],
      "name": "setBaseURI",
      "outputs": [],
      "stateMutability": "nonpayable",
      "type": "function"
    },
    {
      "inputs": [
        {
          "internalType": "string",
          "name": "_newBaseExtension",
          "type": "string"
        }
      ],
      "name": "setBaseExtension",
      "outputs": [],
      "stateMutability": "nonpayable",
      "type": "function"
    },
    {
      "inputs": [
        {
          "internalType": "bool",
          "name": "_state",
          "type": "bool"
        }
      ],
      "name": "pause",
      "outputs": [],
      "stateMutability": "nonpayable",
      "type": "function"
    },
    {
      "inputs": [],
      "name": "withdraw",
      "outputs": [],
      "stateMutability": "payable",
      "type": "function",
      "payable": true
    },
    {
      "inputs": [
        {
          "internalType": "address[]",
          "name": "addresses",
          "type": "address[]"
        }
      ],
      "name": "setAllowList",
      "outputs": [],
      "stateMutability": "nonpayable",
      "type": "function"
    },
    {
      "inputs": [
        {
          "internalType": "address",
          "name": "_whitelistedAddress",
          "type": "address"
        }
      ],
      "name": "verifyUser",
      "outputs": [
        {
          "internalType": "bool",
          "name": "",
          "type": "bool"
        }
      ],
      "stateMutability": "view",
      "type": "function",
      "constant": true
    },
    {
      "inputs": [
        {
          "internalType": "bool",
          "name": "_state",
          "type": "bool"
        }
      ],
      "name": "setOnlyWhitelisted",
      "outputs": [],
      "stateMutability": "nonpayable",
      "type": "function"
    },
    {
      "inputs": [],
      "name": "getBalance",
      "outputs": [
        {
          "internalType": "uint256",
          "name": "",
          "type": "uint256"
        }
      ],
      "stateMutability": "view",
      "type": "function",
      "constant": true
    },
    {
      "inputs": [
        {
          "internalType": "address",
          "name": "_address",
          "type": "address"
        }
      ],
      "name": "isEbisusBayMember",
      "outputs": [
        {
          "internalType": "bool",
          "name": "",
          "type": "bool"
        }
      ],
      "stateMutability": "view",
      "type": "function",
      "constant": true
    },
    {
      "inputs": [
        {
          "internalType": "address",
          "name": "_address",
          "type": "address"
        }
      ],
      "name": "setMemberShipAddress",
      "outputs": [],
      "stateMutability": "nonpayable",
      "type": "function"
    }
  ],
  "bytecode": "0x60a06040526040518060400160405280600581526020017f2e6a736f6e000000000000000000000000000000000000000000000000000000815250600d90805190602001906200005192919062000416565b506815af1d78b58c400000600e556812f939c99edab80000600f55681043561a88293000006010556109c460115560196012556032601355600560145573454cfaa623a629cc0b4017aeb85d54c42e91479d601560006101000a81548173ffffffffffffffffffffffffffffffffffffffff021916908373ffffffffffffffffffffffffffffffffffffffff160217905550733f1590a5984c89e6d5831bfb76788f3517cdf034601660006101000a81548173ffffffffffffffffffffffffffffffffffffffff021916908373ffffffffffffffffffffffffffffffffffffffff1602179055506000601660146101000a81548160ff0219169083151502179055506000601660156101000a81548160ff0219169083151502179055503480156200017b57600080fd5b5060405162006d3f38038062006d3f8339818101604052810190620001a1919062000546565b82828160009080519060200190620001bb92919062000416565b508060019080519060200190620001d492919062000416565b505050620001f7620001eb6200027360201b60201c565b6200027b60201b60201c565b6040516200020590620004a7565b604051809103906000f08015801562000222573d6000803e3d6000fd5b5073ffffffffffffffffffffffffffffffffffffffff1660808173ffffffffffffffffffffffffffffffffffffffff1660601b815250506200026a816200034160201b60201c565b5050506200078d565b600033905090565b6000600a60009054906101000a900473ffffffffffffffffffffffffffffffffffffffff16905081600a60006101000a81548173ffffffffffffffffffffffffffffffffffffffff021916908373ffffffffffffffffffffffffffffffffffffffff1602179055508173ffffffffffffffffffffffffffffffffffffffff168173ffffffffffffffffffffffffffffffffffffffff167f8be0079c531659141344cd1fd0a4f28419497f9722a3daafe3b4186f6b6457e060405160405180910390a35050565b620003516200027360201b60201c565b73ffffffffffffffffffffffffffffffffffffffff1662000377620003ec60201b60201c565b73ffffffffffffffffffffffffffffffffffffffff1614620003d0576040517f08c379a0000000000000000000000000000000000000000000000000000000008152600401620003c79062000629565b60405180910390fd5b80600c9080519060200190620003e892919062000416565b5050565b6000600a60009054906101000a900473ffffffffffffffffffffffffffffffffffffffff16905090565b8280546200042490620006f9565b90600052602060002090601f01602090048101928262000448576000855562000494565b82601f106200046357805160ff191683800117855562000494565b8280016001018555821562000494579182015b828111156200049357825182559160200191906001019062000476565b5b509050620004a39190620004b5565b5090565b610ccd806200607283390190565b5b80821115620004d0576000816000905550600101620004b6565b5090565b6000620004eb620004e5846200067f565b6200064b565b9050828152602081018484840111156200050457600080fd5b62000511848285620006c3565b509392505050565b600082601f8301126200052b57600080fd5b81516200053d848260208601620004d4565b91505092915050565b6000806000606084860312156200055c57600080fd5b600084015167ffffffffffffffff8111156200057757600080fd5b620005858682870162000519565b935050602084015167ffffffffffffffff811115620005a357600080fd5b620005b18682870162000519565b925050604084015167ffffffffffffffff811115620005cf57600080fd5b620005dd8682870162000519565b9150509250925092565b6000620005f6602083620006b2565b91507f4f776e61626c653a2063616c6c6572206973206e6f7420746865206f776e65726000830152602082019050919050565b600060208201905081810360008301526200064481620005e7565b9050919050565b6000604051905081810181811067ffffffffffffffff821117156200067557620006746200075e565b5b8060405250919050565b600067ffffffffffffffff8211156200069d576200069c6200075e565b5b601f19601f8301169050602081019050919050565b600082825260208201905092915050565b60005b83811015620006e3578082015181840152602081019050620006c6565b83811115620006f3576000848401525b50505050565b600060028204905060018216806200071257607f821691505b602082108114156200072957620007286200072f565b5b50919050565b7f4e487b7100000000000000000000000000000000000000000000000000000000600052602260045260246000fd5b7f4e487b7100000000000000000000000000000000000000000000000000000000600052604160045260246000fd5b60805160601c6158b8620007ba600039600081816112d3015281816127710152612fda01526158b86000f3fe6080604052600436106102ae5760003560e01c80635c975abb11610175578063a0712d68116100dc578063c87b56dd11610095578063da3ef23f1161006f578063da3ef23f14610ac0578063e2982c2114610ae9578063e985e9c514610b26578063f2fde38b14610b63576102ae565b8063c87b56dd14610a2d578063cd8d999414610a6a578063d5abeb0114610a95576102ae565b8063a0712d681461093e578063a22cb4651461095a578063b88d4fde14610983578063b88fe6a3146109ac578063ba7d2c76146109d7578063c668286214610a02576102ae565b8063715018a61161012e578063715018a6146108505780638693da20146108675780638da5cb5b146108925780639257e044146108bd57806395d89b41146108e85780639c70b51214610913576102ae565b80635c975abb1461072c57806363378f1d146107575780636352211e146107825780636447c35d146107bf5780636c0360eb146107e857806370a0823114610813576102ae565b806323b872dd11610219578063438b6300116101d2578063438b6300146105f657806348bc5b91146106335780634d8131201461065e5780634dd98b131461069b5780634f6ccce7146106c657806355f804b314610703576102ae565b806323b872dd1461050b5780632f745c591461053457806331b3eb94146105715780633c9527641461059a5780633ccfd60b146105c357806342842e0e146105cd576102ae565b80630e7726181161026b5780630e772618146103e757806312065fe01461041057806318160ddd1461043b57806318cae269146104665780631c838bd0146104a3578063239c70ae146104e0576102ae565b806301ffc9a7146102b357806302329a29146102f057806306c933d81461031957806306fdde0314610356578063081812fc14610381578063095ea7b3146103be575b600080fd5b3480156102bf57600080fd5b506102da60048036038101906102d591906141cc565b610b8c565b6040516102e79190614f51565b60405180910390f35b3480156102fc57600080fd5b50610317600480360381019061031291906141a3565b610c06565b005b34801561032557600080fd5b50610340600480360381019061033b9190613f8e565b610c9f565b60405161034d9190614f51565b60405180910390f35b34801561036257600080fd5b5061036b610cbf565b6040516103789190614f87565b60405180910390f35b34801561038d57600080fd5b506103a860048036038101906103a3919061425f565b610d51565b6040516103b59190614e5b565b60405180910390f35b3480156103ca57600080fd5b506103e560048036038101906103e09190614122565b610dd6565b005b3480156103f357600080fd5b5061040e60048036038101906104099190613f8e565b610eee565b005b34801561041c57600080fd5b50610425610fae565b6040516104329190615329565b60405180910390f35b34801561044757600080fd5b50610450611032565b60405161045d9190615329565b60405180910390f35b34801561047257600080fd5b5061048d60048036038101906104889190613f8e565b61103f565b60405161049a9190615329565b60405180910390f35b3480156104af57600080fd5b506104ca60048036038101906104c59190613f8e565b611057565b6040516104d79190614f51565b60405180910390f35b3480156104ec57600080fd5b506104f56111c6565b6040516105029190615329565b60405180910390f35b34801561051757600080fd5b50610532600480360381019061052d919061401c565b6111cc565b005b34801561054057600080fd5b5061055b60048036038101906105569190614122565b61122c565b6040516105689190615329565b60405180910390f35b34801561057d57600080fd5b5061059860048036038101906105939190613fb7565b6112d1565b005b3480156105a657600080fd5b506105c160048036038101906105bc91906141a3565b61135f565b005b6105cb6113f8565b005b3480156105d957600080fd5b506105f460048036038101906105ef919061401c565b6114f4565b005b34801561060257600080fd5b5061061d60048036038101906106189190613f8e565b611514565b60405161062a9190614f2f565b60405180910390f35b34801561063f57600080fd5b5061064861167e565b6040516106559190614e5b565b60405180910390f35b34801561066a57600080fd5b5061068560048036038101906106809190613f8e565b6116a4565b6040516106929190614f51565b60405180910390f35b3480156106a757600080fd5b506106b0611769565b6040516106bd9190615329565b60405180910390f35b3480156106d257600080fd5b506106ed60048036038101906106e8919061425f565b61176f565b6040516106fa9190615329565b60405180910390f35b34801561070f57600080fd5b5061072a6004803603810190610725919061421e565b611806565b005b34801561073857600080fd5b5061074161189c565b60405161074e9190614f51565b60405180910390f35b34801561076357600080fd5b5061076c6118af565b6040516107799190615329565b60405180910390f35b34801561078e57600080fd5b506107a960048036038101906107a4919061425f565b6118b5565b6040516107b69190614e5b565b60405180910390f35b3480156107cb57600080fd5b506107e660048036038101906107e1919061415e565b611967565b005b3480156107f457600080fd5b506107fd611b6b565b60405161080a9190614f87565b60405180910390f35b34801561081f57600080fd5b5061083a60048036038101906108359190613f8e565b611bf9565b6040516108479190615329565b60405180910390f35b34801561085c57600080fd5b50610865611cb1565b005b34801561087357600080fd5b5061087c611d39565b6040516108899190615329565b60405180910390f35b34801561089e57600080fd5b506108a7611d3f565b6040516108b49190614e5b565b60405180910390f35b3480156108c957600080fd5b506108d2611d69565b6040516108df9190615329565b60405180910390f35b3480156108f457600080fd5b506108fd611d6f565b60405161090a9190614f87565b60405180910390f35b34801561091f57600080fd5b50610928611e01565b6040516109359190614f51565b60405180910390f35b6109586004803603810190610953919061425f565b611e14565b005b34801561096657600080fd5b50610981600480360381019061097c91906140e6565b6124cf565b005b34801561098f57600080fd5b506109aa60048036038101906109a5919061406b565b6124e5565b005b3480156109b857600080fd5b506109c1612547565b6040516109ce9190614f6c565b60405180910390f35b3480156109e357600080fd5b506109ec61256d565b6040516109f99190615329565b60405180910390f35b348015610a0e57600080fd5b50610a17612573565b604051610a249190614f87565b60405180910390f35b348015610a3957600080fd5b50610a546004803603810190610a4f919061425f565b612601565b604051610a619190614f87565b60405180910390f35b348015610a7657600080fd5b50610a7f6126ab565b604051610a8c9190614e5b565b60405180910390f35b348015610aa157600080fd5b50610aaa6126d1565b604051610ab79190615329565b60405180910390f35b348015610acc57600080fd5b50610ae76004803603810190610ae2919061421e565b6126d7565b005b348015610af557600080fd5b50610b106004803603810190610b0b9190613f8e565b61276d565b604051610b1d9190615329565b60405180910390f35b348015610b3257600080fd5b50610b4d6004803603810190610b489190613fe0565b61281f565b604051610b5a9190614f51565b60405180910390f35b348015610b6f57600080fd5b50610b8a6004803603810190610b859190613f8e565b6128b3565b005b60007f780e9d63000000000000000000000000000000000000000000000000000000007bffffffffffffffffffffffffffffffffffffffffffffffffffffffff1916827bffffffffffffffffffffffffffffffffffffffffffffffffffffffff19161480610bff5750610bfe826129ab565b5b9050919050565b610c0e612a8d565b73ffffffffffffffffffffffffffffffffffffffff16610c2c611d3f565b73ffffffffffffffffffffffffffffffffffffffff1614610c82576040517f08c379a0000000000000000000000000000000000000000000000000000000008152600401610c79906151c9565b60405180910390fd5b80601660146101000a81548160ff02191690831515021790555050565b60186020528060005260406000206000915054906101000a900460ff1681565b606060008054610cce90615696565b80601f0160208091040260200160405190810160405280929190818152602001828054610cfa90615696565b8015610d475780601f10610d1c57610100808354040283529160200191610d47565b820191906000526020600020905b815481529060010190602001808311610d2a57829003601f168201915b5050505050905090565b6000610d5c82612a95565b610d9b576040517f08c379a0000000000000000000000000000000000000000000000000000000008152600401610d92906151a9565b60405180910390fd5b6004600083815260200190815260200160002060009054906101000a900473ffffffffffffffffffffffffffffffffffffffff169050919050565b6000610de1826118b5565b90508073ffffffffffffffffffffffffffffffffffffffff168373ffffffffffffffffffffffffffffffffffffffff161415610e52576040517f08c379a0000000000000000000000000000000000000000000000000000000008152600401610e4990615269565b60405180910390fd5b8073ffffffffffffffffffffffffffffffffffffffff16610e71612a8d565b73ffffffffffffffffffffffffffffffffffffffff161480610ea05750610e9f81610e9a612a8d565b61281f565b5b610edf576040517f08c379a0000000000000000000000000000000000000000000000000000000008152600401610ed6906150c9565b60405180910390fd5b610ee98383612b01565b505050565b610ef6612a8d565b73ffffffffffffffffffffffffffffffffffffffff16610f14611d3f565b73ffffffffffffffffffffffffffffffffffffffff1614610f6a576040517f08c379a0000000000000000000000000000000000000000000000000000000008152600401610f61906151c9565b60405180910390fd5b80601660006101000a81548173ffffffffffffffffffffffffffffffffffffffff021916908373ffffffffffffffffffffffffffffffffffffffff16021790555050565b6000610fb8612a8d565b73ffffffffffffffffffffffffffffffffffffffff16610fd6611d3f565b73ffffffffffffffffffffffffffffffffffffffff161461102c576040517f08c379a0000000000000000000000000000000000000000000000000000000008152600401611023906151c9565b60405180910390fd5b47905090565b6000600880549050905090565b60176020528060005260406000206000915090505481565b600080600b60009054906101000a900473ffffffffffffffffffffffffffffffffffffffff1673ffffffffffffffffffffffffffffffffffffffff1662fdd58e8460016040518363ffffffff1660e01b81526004016110b7929190614edd565b60206040518083038186803b1580156110cf57600080fd5b505afa1580156110e3573d6000803e3d6000fd5b505050506040513d601f19601f820116820180604052508101906111079190614288565b11806111bf57506000600b60009054906101000a900473ffffffffffffffffffffffffffffffffffffffff1673ffffffffffffffffffffffffffffffffffffffff1662fdd58e8460026040518363ffffffff1660e01b815260040161116d929190614f06565b60206040518083038186803b15801561118557600080fd5b505afa158015611199573d6000803e3d6000fd5b505050506040513d601f19601f820116820180604052508101906111bd9190614288565b115b9050919050565b60125481565b6111dd6111d7612a8d565b82612bba565b61121c576040517f08c379a0000000000000000000000000000000000000000000000000000000008152600401611213906152a9565b60405180910390fd5b611227838383612c98565b505050565b600061123783611bf9565b8210611278576040517f08c379a000000000000000000000000000000000000000000000000000000000815260040161126f90614fc9565b60405180910390fd5b600660008473ffffffffffffffffffffffffffffffffffffffff1673ffffffffffffffffffffffffffffffffffffffff168152602001908152602001600020600083815260200190815260200160002054905092915050565b7f000000000000000000000000000000000000000000000000000000000000000073ffffffffffffffffffffffffffffffffffffffff166351cff8d9826040518263ffffffff1660e01b815260040161132a9190614e76565b600060405180830381600087803b15801561134457600080fd5b505af1158015611358573d6000803e3d6000fd5b5050505050565b611367612a8d565b73ffffffffffffffffffffffffffffffffffffffff16611385611d3f565b73ffffffffffffffffffffffffffffffffffffffff16146113db576040517f08c379a00000000000000000000000000000000000000000000000000000000081526004016113d2906151c9565b60405180910390fd5b80601660156101000a81548160ff02191690831515021790555050565b611400612a8d565b73ffffffffffffffffffffffffffffffffffffffff1661141e611d3f565b73ffffffffffffffffffffffffffffffffffffffff1614611474576040517f08c379a000000000000000000000000000000000000000000000000000000000815260040161146b906151c9565b60405180910390fd5b600061147e611d3f565b73ffffffffffffffffffffffffffffffffffffffff16476040516114a190614e46565b60006040518083038185875af1925050503d80600081146114de576040519150601f19603f3d011682016040523d82523d6000602084013e6114e3565b606091505b50509050806114f157600080fd5b50565b61150f838383604051806020016040528060008152506124e5565b505050565b6060600073ffffffffffffffffffffffffffffffffffffffff168273ffffffffffffffffffffffffffffffffffffffff161415611586576040517f08c379a000000000000000000000000000000000000000000000000000000000815260040161157d90615249565b60405180910390fd5b600061159183611bf9565b905060008167ffffffffffffffff8111156115d5577f4e487b7100000000000000000000000000000000000000000000000000000000600052604160045260246000fd5b6040519080825280602002602001820160405280156116035781602001602082028036833780820191505090505b50905060005b828110156116735761161b858261122c565b828281518110611654577f4e487b7100000000000000000000000000000000000000000000000000000000600052603260045260246000fd5b602002602001018181525050808061166b906156c8565b915050611609565b508092505050919050565b601560009054906101000a900473ffffffffffffffffffffffffffffffffffffffff1681565b60008073ffffffffffffffffffffffffffffffffffffffff168273ffffffffffffffffffffffffffffffffffffffff161415611715576040517f08c379a000000000000000000000000000000000000000000000000000000000815260040161170c90615249565b60405180910390fd5b601860008373ffffffffffffffffffffffffffffffffffffffff1673ffffffffffffffffffffffffffffffffffffffff16815260200190815260200160002060009054906101000a900460ff169050919050565b600f5481565b6000611779611032565b82106117ba576040517f08c379a00000000000000000000000000000000000000000000000000000000081526004016117b1906152c9565b60405180910390fd5b600882815481106117f4577f4e487b7100000000000000000000000000000000000000000000000000000000600052603260045260246000fd5b90600052602060002001549050919050565b61180e612a8d565b73ffffffffffffffffffffffffffffffffffffffff1661182c611d3f565b73ffffffffffffffffffffffffffffffffffffffff1614611882576040517f08c379a0000000000000000000000000000000000000000000000000000000008152600401611879906151c9565b60405180910390fd5b80600c9080519060200190611898929190613d3e565b5050565b601660149054906101000a900460ff1681565b60145481565b6000806002600084815260200190815260200160002060009054906101000a900473ffffffffffffffffffffffffffffffffffffffff169050600073ffffffffffffffffffffffffffffffffffffffff168173ffffffffffffffffffffffffffffffffffffffff16141561195e576040517f08c379a000000000000000000000000000000000000000000000000000000000815260040161195590615109565b60405180910390fd5b80915050919050565b61196f612a8d565b73ffffffffffffffffffffffffffffffffffffffff1661198d611d3f565b73ffffffffffffffffffffffffffffffffffffffff16146119e3576040517f08c379a00000000000000000000000000000000000000000000000000000000081526004016119da906151c9565b60405180910390fd5b60005b82829050811015611b6657600073ffffffffffffffffffffffffffffffffffffffff16838383818110611a42577f4e487b7100000000000000000000000000000000000000000000000000000000600052603260045260246000fd5b9050602002016020810190611a579190613f8e565b73ffffffffffffffffffffffffffffffffffffffff161415611aae576040517f08c379a0000000000000000000000000000000000000000000000000000000008152600401611aa590614fa9565b60405180910390fd5b600160186000858585818110611aed577f4e487b7100000000000000000000000000000000000000000000000000000000600052603260045260246000fd5b9050602002016020810190611b029190613f8e565b73ffffffffffffffffffffffffffffffffffffffff1673ffffffffffffffffffffffffffffffffffffffff16815260200190815260200160002060006101000a81548160ff0219169083151502179055508080611b5e906156c8565b9150506119e6565b505050565b600c8054611b7890615696565b80601f0160208091040260200160405190810160405280929190818152602001828054611ba490615696565b8015611bf15780601f10611bc657610100808354040283529160200191611bf1565b820191906000526020600020905b815481529060010190602001808311611bd457829003601f168201915b505050505081565b60008073ffffffffffffffffffffffffffffffffffffffff168273ffffffffffffffffffffffffffffffffffffffff161415611c6a576040517f08c379a0000000000000000000000000000000000000000000000000000000008152600401611c61906150e9565b60405180910390fd5b600360008373ffffffffffffffffffffffffffffffffffffffff1673ffffffffffffffffffffffffffffffffffffffff168152602001908152602001600020549050919050565b611cb9612a8d565b73ffffffffffffffffffffffffffffffffffffffff16611cd7611d3f565b73ffffffffffffffffffffffffffffffffffffffff1614611d2d576040517f08c379a0000000000000000000000000000000000000000000000000000000008152600401611d24906151c9565b60405180910390fd5b611d376000612ef4565b565b600e5481565b6000600a60009054906101000a900473ffffffffffffffffffffffffffffffffffffffff16905090565b60105481565b606060018054611d7e90615696565b80601f0160208091040260200160405190810160405280929190818152602001828054611daa90615696565b8015611df75780601f10611dcc57610100808354040283529160200191611df7565b820191906000526020600020905b815481529060010190602001808311611dda57829003601f168201915b5050505050905090565b601660159054906101000a900460ff1681565b601660149054906101000a900460ff1615611e64576040517f08c379a0000000000000000000000000000000000000000000000000000000008152600401611e5b906151e9565b60405180910390fd5b6000611e6e611032565b905060008211611eb3576040517f08c379a0000000000000000000000000000000000000000000000000000000008152600401611eaa90615309565b60405180910390fd5b601254821115611ef8576040517f08c379a0000000000000000000000000000000000000000000000000000000008152600401611eef90615149565b60405180910390fd5b6011548282611f079190615471565b1115611f48576040517f08c379a0000000000000000000000000000000000000000000000000000000008152600401611f3f90615129565b60405180910390fd5b611f50611d3f565b73ffffffffffffffffffffffffffffffffffffffff163373ffffffffffffffffffffffffffffffffffffffff16146123fa5760011515601660159054906101000a900460ff1615151415611fe757611fa7336116a4565b611fe6576040517f08c379a0000000000000000000000000000000000000000000000000000000008152600401611fdd906152e9565b60405180910390fd5b5b6000601760003373ffffffffffffffffffffffffffffffffffffffff1673ffffffffffffffffffffffffffffffffffffffff168152602001908152602001600020549050601354838261203a9190615471565b111561207b576040517f08c379a000000000000000000000000000000000000000000000000000000000815260040161207290615049565b60405180910390fd5b612084336116a4565b156121d9576010543410156120ce576040517f08c379a00000000000000000000000000000000000000000000000000000000081526004016120c590615289565b60405180910390fd5b60018314612111576040517f08c379a000000000000000000000000000000000000000000000000000000000815260040161210890615189565b60405180910390fd5b601760003373ffffffffffffffffffffffffffffffffffffffff1673ffffffffffffffffffffffffffffffffffffffff1681526020019081526020016000206000815480929190612161906156c8565b919050555061217c336001846121779190615471565b612fba565b6000601860003373ffffffffffffffffffffffffffffffffffffffff1673ffffffffffffffffffffffffffffffffffffffff16815260200190815260200160002060006101000a81548160ff0219169083151502179055506123f4565b60006121e433611057565b801561223d5750601660009054906101000a900473ffffffffffffffffffffffffffffffffffffffff1673ffffffffffffffffffffffffffffffffffffffff163373ffffffffffffffffffffffffffffffffffffffff16145b156122c05783600f5461225091906154f8565b341015612292576040517f08c379a000000000000000000000000000000000000000000000000000000000815260040161228990615289565b60405180910390fd5b606460145485600f546122a591906154f8565b6122af91906154f8565b6122b991906154c7565b905061233a565b83600e546122ce91906154f8565b341015612310576040517f08c379a000000000000000000000000000000000000000000000000000000000815260040161230790615289565b60405180910390fd5b606460145485600e5461232391906154f8565b61232d91906154f8565b61233791906154c7565b90505b6000600190505b8481116123c557601760003373ffffffffffffffffffffffffffffffffffffffff1673ffffffffffffffffffffffffffffffffffffffff1681526020019081526020016000206000815480929190612398906156c8565b91905055506123b23382866123ad9190615471565b612fba565b80806123bd906156c8565b915050612341565b506123f2601560009054906101000a900473ffffffffffffffffffffffffffffffffffffffff1682612fd8565b505b50612487565b6000600190505b82811161248557601760003373ffffffffffffffffffffffffffffffffffffffff1673ffffffffffffffffffffffffffffffffffffffff1681526020019081526020016000206000815480929190612458906156c8565b919050555061247233828461246d9190615471565b612fba565b808061247d906156c8565b915050612401565b505b813373ffffffffffffffffffffffffffffffffffffffff167f3fffaa5804a26fcec0d70b1d0fb0a2d0031df3a5f9c8af2127c2f4360e97b46360405160405180910390a35050565b6124e16124da612a8d565b8383613068565b5050565b6124f66124f0612a8d565b83612bba565b612535576040517f08c379a000000000000000000000000000000000000000000000000000000000815260040161252c906152a9565b60405180910390fd5b612541848484846131d5565b50505050565b600b60009054906101000a900473ffffffffffffffffffffffffffffffffffffffff1681565b60135481565b600d805461258090615696565b80601f01602080910402602001604051908101604052809291908181526020018280546125ac90615696565b80156125f95780601f106125ce576101008083540402835291602001916125f9565b820191906000526020600020905b8154815290600101906020018083116125dc57829003601f168201915b505050505081565b606061260c82612a95565b61264b576040517f08c379a000000000000000000000000000000000000000000000000000000000815260040161264290615229565b60405180910390fd5b6000612655613231565b9050600081511161267557604051806020016040528060008152506126a3565b8061267f846132c3565b600d60405160200161269393929190614e15565b6040516020818303038152906040525b915050919050565b601660009054906101000a900473ffffffffffffffffffffffffffffffffffffffff1681565b60115481565b6126df612a8d565b73ffffffffffffffffffffffffffffffffffffffff166126fd611d3f565b73ffffffffffffffffffffffffffffffffffffffff1614612753576040517f08c379a000000000000000000000000000000000000000000000000000000000815260040161274a906151c9565b60405180910390fd5b80600d9080519060200190612769929190613d3e565b5050565b60007f000000000000000000000000000000000000000000000000000000000000000073ffffffffffffffffffffffffffffffffffffffff1663e3a9db1a836040518263ffffffff1660e01b81526004016127c89190614e5b565b60206040518083038186803b1580156127e057600080fd5b505afa1580156127f4573d6000803e3d6000fd5b505050506040513d601f19601f820116820180604052508101906128189190614288565b9050919050565b6000600560008473ffffffffffffffffffffffffffffffffffffffff1673ffffffffffffffffffffffffffffffffffffffff16815260200190815260200160002060008373ffffffffffffffffffffffffffffffffffffffff1673ffffffffffffffffffffffffffffffffffffffff16815260200190815260200160002060009054906101000a900460ff16905092915050565b6128bb612a8d565b73ffffffffffffffffffffffffffffffffffffffff166128d9611d3f565b73ffffffffffffffffffffffffffffffffffffffff161461292f576040517f08c379a0000000000000000000000000000000000000000000000000000000008152600401612926906151c9565b60405180910390fd5b600073ffffffffffffffffffffffffffffffffffffffff168173ffffffffffffffffffffffffffffffffffffffff16141561299f576040517f08c379a000000000000000000000000000000000000000000000000000000000815260040161299690615009565b60405180910390fd5b6129a881612ef4565b50565b60007f80ac58cd000000000000000000000000000000000000000000000000000000007bffffffffffffffffffffffffffffffffffffffffffffffffffffffff1916827bffffffffffffffffffffffffffffffffffffffffffffffffffffffff19161480612a7657507f5b5e139f000000000000000000000000000000000000000000000000000000007bffffffffffffffffffffffffffffffffffffffffffffffffffffffff1916827bffffffffffffffffffffffffffffffffffffffffffffffffffffffff1916145b80612a865750612a8582613470565b5b9050919050565b600033905090565b60008073ffffffffffffffffffffffffffffffffffffffff166002600084815260200190815260200160002060009054906101000a900473ffffffffffffffffffffffffffffffffffffffff1673ffffffffffffffffffffffffffffffffffffffff1614159050919050565b816004600083815260200190815260200160002060006101000a81548173ffffffffffffffffffffffffffffffffffffffff021916908373ffffffffffffffffffffffffffffffffffffffff160217905550808273ffffffffffffffffffffffffffffffffffffffff16612b74836118b5565b73ffffffffffffffffffffffffffffffffffffffff167f8c5be1e5ebec7d5bd14f71427d1e84f3dd0314c0f7b2291e5b200ac8c7c3b92560405160405180910390a45050565b6000612bc582612a95565b612c04576040517f08c379a0000000000000000000000000000000000000000000000000000000008152600401612bfb906150a9565b60405180910390fd5b6000612c0f836118b5565b90508073ffffffffffffffffffffffffffffffffffffffff168473ffffffffffffffffffffffffffffffffffffffff161480612c7e57508373ffffffffffffffffffffffffffffffffffffffff16612c6684610d51565b73ffffffffffffffffffffffffffffffffffffffff16145b80612c8f5750612c8e818561281f565b5b91505092915050565b8273ffffffffffffffffffffffffffffffffffffffff16612cb8826118b5565b73ffffffffffffffffffffffffffffffffffffffff1614612d0e576040517f08c379a0000000000000000000000000000000000000000000000000000000008152600401612d0590615209565b60405180910390fd5b600073ffffffffffffffffffffffffffffffffffffffff168273ffffffffffffffffffffffffffffffffffffffff161415612d7e576040517f08c379a0000000000000000000000000000000000000000000000000000000008152600401612d7590615069565b60405180910390fd5b612d898383836134da565b612d94600082612b01565b6001600360008573ffffffffffffffffffffffffffffffffffffffff1673ffffffffffffffffffffffffffffffffffffffff1681526020019081526020016000206000828254612de49190615552565b925050819055506001600360008473ffffffffffffffffffffffffffffffffffffffff1673ffffffffffffffffffffffffffffffffffffffff1681526020019081526020016000206000828254612e3b9190615471565b92505081905550816002600083815260200190815260200160002060006101000a81548173ffffffffffffffffffffffffffffffffffffffff021916908373ffffffffffffffffffffffffffffffffffffffff160217905550808273ffffffffffffffffffffffffffffffffffffffff168473ffffffffffffffffffffffffffffffffffffffff167fddf252ad1be2c89b69c2b068fc378daa952ba7f163c4a11628f55a4df523b3ef60405160405180910390a4505050565b6000600a60009054906101000a900473ffffffffffffffffffffffffffffffffffffffff16905081600a60006101000a81548173ffffffffffffffffffffffffffffffffffffffff021916908373ffffffffffffffffffffffffffffffffffffffff1602179055508173ffffffffffffffffffffffffffffffffffffffff168173ffffffffffffffffffffffffffffffffffffffff167f8be0079c531659141344cd1fd0a4f28419497f9722a3daafe3b4186f6b6457e060405160405180910390a35050565b612fd48282604051806020016040528060008152506135ee565b5050565b7f000000000000000000000000000000000000000000000000000000000000000073ffffffffffffffffffffffffffffffffffffffff1663f340fa0182846040518363ffffffff1660e01b81526004016130329190614e5b565b6000604051808303818588803b15801561304b57600080fd5b505af115801561305f573d6000803e3d6000fd5b50505050505050565b8173ffffffffffffffffffffffffffffffffffffffff168373ffffffffffffffffffffffffffffffffffffffff1614156130d7576040517f08c379a00000000000000000000000000000000000000000000000000000000081526004016130ce90615089565b60405180910390fd5b80600560008573ffffffffffffffffffffffffffffffffffffffff1673ffffffffffffffffffffffffffffffffffffffff16815260200190815260200160002060008473ffffffffffffffffffffffffffffffffffffffff1673ffffffffffffffffffffffffffffffffffffffff16815260200190815260200160002060006101000a81548160ff0219169083151502179055508173ffffffffffffffffffffffffffffffffffffffff168373ffffffffffffffffffffffffffffffffffffffff167f17307eab39ab6107e8899845ad3d59bd9653f200f220920489ca2b5937696c31836040516131c89190614f51565b60405180910390a3505050565b6131e0848484612c98565b6131ec84848484613649565b61322b576040517f08c379a000000000000000000000000000000000000000000000000000000000815260040161322290614fe9565b60405180910390fd5b50505050565b6060600c805461324090615696565b80601f016020809104026020016040519081016040528092919081815260200182805461326c90615696565b80156132b95780601f1061328e576101008083540402835291602001916132b9565b820191906000526020600020905b81548152906001019060200180831161329c57829003601f168201915b5050505050905090565b6060600082141561330b576040518060400160405280600181526020017f3000000000000000000000000000000000000000000000000000000000000000815250905061346b565b600082905060005b6000821461333d578080613326906156c8565b915050600a8261333691906154c7565b9150613313565b60008167ffffffffffffffff81111561337f577f4e487b7100000000000000000000000000000000000000000000000000000000600052604160045260246000fd5b6040519080825280601f01601f1916602001820160405280156133b15781602001600182028036833780820191505090505b5090505b60008514613464576001826133ca9190615552565b9150600a856133d99190615711565b60306133e59190615471565b60f81b818381518110613421577f4e487b7100000000000000000000000000000000000000000000000000000000600052603260045260246000fd5b60200101907effffffffffffffffffffffffffffffffffffffffffffffffffffffffffffff1916908160001a905350600a8561345d91906154c7565b94506133b5565b8093505050505b919050565b60007f01ffc9a7000000000000000000000000000000000000000000000000000000007bffffffffffffffffffffffffffffffffffffffffffffffffffffffff1916827bffffffffffffffffffffffffffffffffffffffffffffffffffffffff1916149050919050565b6134e58383836137e0565b600073ffffffffffffffffffffffffffffffffffffffff168373ffffffffffffffffffffffffffffffffffffffff16141561352857613523816137e5565b613567565b8173ffffffffffffffffffffffffffffffffffffffff168373ffffffffffffffffffffffffffffffffffffffff161461356657613565838261382e565b5b5b600073ffffffffffffffffffffffffffffffffffffffff168273ffffffffffffffffffffffffffffffffffffffff1614156135aa576135a58161399b565b6135e9565b8273ffffffffffffffffffffffffffffffffffffffff168273ffffffffffffffffffffffffffffffffffffffff16146135e8576135e78282613ade565b5b5b505050565b6135f88383613b5d565b6136056000848484613649565b613644576040517f08c379a000000000000000000000000000000000000000000000000000000000815260040161363b90614fe9565b60405180910390fd5b505050565b600061366a8473ffffffffffffffffffffffffffffffffffffffff16613d2b565b156137d3578373ffffffffffffffffffffffffffffffffffffffff1663150b7a02613693612a8d565b8786866040518563ffffffff1660e01b81526004016136b59493929190614e91565b602060405180830381600087803b1580156136cf57600080fd5b505af192505050801561370057506040513d601f19601f820116820180604052508101906136fd91906141f5565b60015b613783573d8060008114613730576040519150601f19603f3d011682016040523d82523d6000602084013e613735565b606091505b5060008151141561377b576040517f08c379a000000000000000000000000000000000000000000000000000000000815260040161377290614fe9565b60405180910390fd5b805181602001fd5b63150b7a0260e01b7bffffffffffffffffffffffffffffffffffffffffffffffffffffffff1916817bffffffffffffffffffffffffffffffffffffffffffffffffffffffff1916149150506137d8565b600190505b949350505050565b505050565b6008805490506009600083815260200190815260200160002081905550600881908060018154018082558091505060019003906000526020600020016000909190919091505550565b6000600161383b84611bf9565b6138459190615552565b905060006007600084815260200190815260200160002054905081811461392a576000600660008673ffffffffffffffffffffffffffffffffffffffff1673ffffffffffffffffffffffffffffffffffffffff168152602001908152602001600020600084815260200190815260200160002054905080600660008773ffffffffffffffffffffffffffffffffffffffff1673ffffffffffffffffffffffffffffffffffffffff168152602001908152602001600020600084815260200190815260200160002081905550816007600083815260200190815260200160002081905550505b6007600084815260200190815260200160002060009055600660008573ffffffffffffffffffffffffffffffffffffffff1673ffffffffffffffffffffffffffffffffffffffff16815260200190815260200160002060008381526020019081526020016000206000905550505050565b600060016008805490506139af9190615552565b9050600060096000848152602001908152602001600020549050600060088381548110613a05577f4e487b7100000000000000000000000000000000000000000000000000000000600052603260045260246000fd5b906000526020600020015490508060088381548110613a4d577f4e487b7100000000000000000000000000000000000000000000000000000000600052603260045260246000fd5b906000526020600020018190555081600960008381526020019081526020016000208190555060096000858152602001908152602001600020600090556008805480613ac2577f4e487b7100000000000000000000000000000000000000000000000000000000600052603160045260246000fd5b6001900381819060005260206000200160009055905550505050565b6000613ae983611bf9565b905081600660008573ffffffffffffffffffffffffffffffffffffffff1673ffffffffffffffffffffffffffffffffffffffff168152602001908152602001600020600083815260200190815260200160002081905550806007600084815260200190815260200160002081905550505050565b600073ffffffffffffffffffffffffffffffffffffffff168273ffffffffffffffffffffffffffffffffffffffff161415613bcd576040517f08c379a0000000000000000000000000000000000000000000000000000000008152600401613bc490615169565b60405180910390fd5b613bd681612a95565b15613c16576040517f08c379a0000000000000000000000000000000000000000000000000000000008152600401613c0d90615029565b60405180910390fd5b613c22600083836134da565b6001600360008473ffffffffffffffffffffffffffffffffffffffff1673ffffffffffffffffffffffffffffffffffffffff1681526020019081526020016000206000828254613c729190615471565b92505081905550816002600083815260200190815260200160002060006101000a81548173ffffffffffffffffffffffffffffffffffffffff021916908373ffffffffffffffffffffffffffffffffffffffff160217905550808273ffffffffffffffffffffffffffffffffffffffff16600073ffffffffffffffffffffffffffffffffffffffff167fddf252ad1be2c89b69c2b068fc378daa952ba7f163c4a11628f55a4df523b3ef60405160405180910390a45050565b600080823b905060008111915050919050565b828054613d4a90615696565b90600052602060002090601f016020900481019282613d6c5760008555613db3565b82601f10613d8557805160ff1916838001178555613db3565b82800160010185558215613db3579182015b82811115613db2578251825591602001919060010190613d97565b5b509050613dc09190613dc4565b5090565b5b80821115613ddd576000816000905550600101613dc5565b5090565b6000613df4613def84615375565b615344565b905082815260208101848484011115613e0c57600080fd5b613e17848285615654565b509392505050565b6000613e32613e2d846153a5565b615344565b905082815260208101848484011115613e4a57600080fd5b613e55848285615654565b509392505050565b600081359050613e6c8161580f565b92915050565b600081359050613e8181615826565b92915050565b60008083601f840112613e9957600080fd5b8235905067ffffffffffffffff811115613eb257600080fd5b602083019150836020820283011115613eca57600080fd5b9250929050565b600081359050613ee08161583d565b92915050565b600081359050613ef581615854565b92915050565b600081519050613f0a81615854565b92915050565b600082601f830112613f2157600080fd5b8135613f31848260208601613de1565b91505092915050565b600082601f830112613f4b57600080fd5b8135613f5b848260208601613e1f565b91505092915050565b600081359050613f738161586b565b92915050565b600081519050613f888161586b565b92915050565b600060208284031215613fa057600080fd5b6000613fae84828501613e5d565b91505092915050565b600060208284031215613fc957600080fd5b6000613fd784828501613e72565b91505092915050565b60008060408385031215613ff357600080fd5b600061400185828601613e5d565b925050602061401285828601613e5d565b9150509250929050565b60008060006060848603121561403157600080fd5b600061403f86828701613e5d565b935050602061405086828701613e5d565b925050604061406186828701613f64565b9150509250925092565b6000806000806080858703121561408157600080fd5b600061408f87828801613e5d565b94505060206140a087828801613e5d565b93505060406140b187828801613f64565b925050606085013567ffffffffffffffff8111156140ce57600080fd5b6140da87828801613f10565b91505092959194509250565b600080604083850312156140f957600080fd5b600061410785828601613e5d565b925050602061411885828601613ed1565b9150509250929050565b6000806040838503121561413557600080fd5b600061414385828601613e5d565b925050602061415485828601613f64565b9150509250929050565b6000806020838503121561417157600080fd5b600083013567ffffffffffffffff81111561418b57600080fd5b61419785828601613e87565b92509250509250929050565b6000602082840312156141b557600080fd5b60006141c384828501613ed1565b91505092915050565b6000602082840312156141de57600080fd5b60006141ec84828501613ee6565b91505092915050565b60006020828403121561420757600080fd5b600061421584828501613efb565b91505092915050565b60006020828403121561423057600080fd5b600082013567ffffffffffffffff81111561424a57600080fd5b61425684828501613f3a565b91505092915050565b60006020828403121561427157600080fd5b600061427f84828501613f64565b91505092915050565b60006020828403121561429a57600080fd5b60006142a884828501613f79565b91505092915050565b60006142bd8383614df7565b60208301905092915050565b6142d281615598565b82525050565b6142e181615586565b82525050565b60006142f2826153fa565b6142fc8185615428565b9350614307836153d5565b8060005b8381101561433857815161431f88826142b1565b975061432a8361541b565b92505060018101905061430b565b5085935050505092915050565b61434e816155aa565b82525050565b600061435f82615405565b6143698185615439565b9350614379818560208601615663565b614382816157fe565b840191505092915050565b6143968161560c565b82525050565b6143a581615630565b82525050565b6143b481615642565b82525050565b60006143c582615410565b6143cf8185615455565b93506143df818560208601615663565b6143e8816157fe565b840191505092915050565b60006143fe82615410565b6144088185615466565b9350614418818560208601615663565b80840191505092915050565b6000815461443181615696565b61443b8186615466565b9450600182166000811461445657600181146144675761449a565b60ff1983168652818601935061449a565b614470856153e5565b60005b8381101561449257815481890152600182019150602081019050614473565b838801955050505b50505092915050565b60006144b0600f83615455565b91507f496e76616c6964206164647265737300000000000000000000000000000000006000830152602082019050919050565b60006144f0602b83615455565b91507f455243373231456e756d657261626c653a206f776e657220696e646578206f7560008301527f74206f6620626f756e64730000000000000000000000000000000000000000006020830152604082019050919050565b6000614556603283615455565b91507f4552433732313a207472616e7366657220746f206e6f6e20455243373231526560008301527f63656976657220696d706c656d656e74657200000000000000000000000000006020830152604082019050919050565b60006145bc602683615455565b91507f4f776e61626c653a206e6577206f776e657220697320746865207a65726f206160008301527f64647265737300000000000000000000000000000000000000000000000000006020830152604082019050919050565b6000614622601c83615455565b91507f4552433732313a20746f6b656e20616c7265616479206d696e746564000000006000830152602082019050919050565b6000614662601c83615455565b91507f6d6178204e4654207065722061646472657373206578636565646564000000006000830152602082019050919050565b60006146a2602483615455565b91507f4552433732313a207472616e7366657220746f20746865207a65726f2061646460008301527f72657373000000000000000000000000000000000000000000000000000000006020830152604082019050919050565b6000614708601983615455565b91507f4552433732313a20617070726f766520746f2063616c6c6572000000000000006000830152602082019050919050565b6000614748602c83615455565b91507f4552433732313a206f70657261746f7220717565727920666f72206e6f6e657860008301527f697374656e7420746f6b656e00000000000000000000000000000000000000006020830152604082019050919050565b60006147ae603883615455565b91507f4552433732313a20617070726f76652063616c6c6572206973206e6f74206f7760008301527f6e6572206e6f7220617070726f76656420666f7220616c6c00000000000000006020830152604082019050919050565b6000614814602a83615455565b91507f4552433732313a2062616c616e636520717565727920666f7220746865207a6560008301527f726f2061646472657373000000000000000000000000000000000000000000006020830152604082019050919050565b600061487a602983615455565b91507f4552433732313a206f776e657220717565727920666f72206e6f6e657869737460008301527f656e7420746f6b656e00000000000000000000000000000000000000000000006020830152604082019050919050565b60006148e0601683615455565b91507f6d6178204e4654206c696d6974206578636565646564000000000000000000006000830152602082019050919050565b6000614920602483615455565b91507f6d6178206d696e7420616d6f756e74207065722073657373696f6e206578636560008301527f65646564000000000000000000000000000000000000000000000000000000006020830152604082019050919050565b6000614986602083615455565b91507f4552433732313a206d696e7420746f20746865207a65726f20616464726573736000830152602082019050919050565b60006149c6601583615455565b91507f6f6e6c79203120666f722057686974652d4c69737400000000000000000000006000830152602082019050919050565b6000614a06602c83615455565b91507f4552433732313a20617070726f76656420717565727920666f72206e6f6e657860008301527f697374656e7420746f6b656e00000000000000000000000000000000000000006020830152604082019050919050565b6000614a6c602083615455565b91507f4f776e61626c653a2063616c6c6572206973206e6f7420746865206f776e65726000830152602082019050919050565b6000614aac601683615455565b91507f74686520636f6e747261637420697320706175736564000000000000000000006000830152602082019050919050565b6000614aec602983615455565b91507f4552433732313a207472616e73666572206f6620746f6b656e2074686174206960008301527f73206e6f74206f776e00000000000000000000000000000000000000000000006020830152604082019050919050565b6000614b52602f83615455565b91507f4552433732314d657461646174613a2055524920717565727920666f72206e6f60008301527f6e6578697374656e7420746f6b656e00000000000000000000000000000000006020830152604082019050919050565b6000614bb8600d83615455565b91507f6e6f7420616464726573732030000000000000000000000000000000000000006000830152602082019050919050565b6000614bf8602183615455565b91507f4552433732313a20617070726f76616c20746f2063757272656e74206f776e6560008301527f72000000000000000000000000000000000000000000000000000000000000006020830152604082019050919050565b6000614c5e60008361544a565b9150600082019050919050565b6000614c78601283615455565b91507f696e73756666696369656e742066756e647300000000000000000000000000006000830152602082019050919050565b6000614cb8603183615455565b91507f4552433732313a207472616e736665722063616c6c6572206973206e6f74206f60008301527f776e6572206e6f7220617070726f7665640000000000000000000000000000006020830152604082019050919050565b6000614d1e602c83615455565b91507f455243373231456e756d657261626c653a20676c6f62616c20696e646578206f60008301527f7574206f6620626f756e647300000000000000000000000000000000000000006020830152604082019050919050565b6000614d84601783615455565b91507f75736572206973206e6f742077686974656c69737465640000000000000000006000830152602082019050919050565b6000614dc4601b83615455565b91507f6e65656420746f206d696e74206174206c656173742031204e465400000000006000830152602082019050919050565b614e0081615602565b82525050565b614e0f81615602565b82525050565b6000614e2182866143f3565b9150614e2d82856143f3565b9150614e398284614424565b9150819050949350505050565b6000614e5182614c51565b9150819050919050565b6000602082019050614e7060008301846142d8565b92915050565b6000602082019050614e8b60008301846142c9565b92915050565b6000608082019050614ea660008301876142d8565b614eb360208301866142d8565b614ec06040830185614e06565b8181036060830152614ed28184614354565b905095945050505050565b6000604082019050614ef260008301856142d8565b614eff602083018461439c565b9392505050565b6000604082019050614f1b60008301856142d8565b614f2860208301846143ab565b9392505050565b60006020820190508181036000830152614f4981846142e7565b905092915050565b6000602082019050614f666000830184614345565b92915050565b6000602082019050614f81600083018461438d565b92915050565b60006020820190508181036000830152614fa181846143ba565b905092915050565b60006020820190508181036000830152614fc2816144a3565b9050919050565b60006020820190508181036000830152614fe2816144e3565b9050919050565b6000602082019050818103600083015261500281614549565b9050919050565b60006020820190508181036000830152615022816145af565b9050919050565b6000602082019050818103600083015261504281614615565b9050919050565b6000602082019050818103600083015261506281614655565b9050919050565b6000602082019050818103600083015261508281614695565b9050919050565b600060208201905081810360008301526150a2816146fb565b9050919050565b600060208201905081810360008301526150c28161473b565b9050919050565b600060208201905081810360008301526150e2816147a1565b9050919050565b6000602082019050818103600083015261510281614807565b9050919050565b600060208201905081810360008301526151228161486d565b9050919050565b60006020820190508181036000830152615142816148d3565b9050919050565b6000602082019050818103600083015261516281614913565b9050919050565b6000602082019050818103600083015261518281614979565b9050919050565b600060208201905081810360008301526151a2816149b9565b9050919050565b600060208201905081810360008301526151c2816149f9565b9050919050565b600060208201905081810360008301526151e281614a5f565b9050919050565b6000602082019050818103600083015261520281614a9f565b9050919050565b6000602082019050818103600083015261522281614adf565b9050919050565b6000602082019050818103600083015261524281614b45565b9050919050565b6000602082019050818103600083015261526281614bab565b9050919050565b6000602082019050818103600083015261528281614beb565b9050919050565b600060208201905081810360008301526152a281614c6b565b9050919050565b600060208201905081810360008301526152c281614cab565b9050919050565b600060208201905081810360008301526152e281614d11565b9050919050565b6000602082019050818103600083015261530281614d77565b9050919050565b6000602082019050818103600083015261532281614db7565b9050919050565b600060208201905061533e6000830184614e06565b92915050565b6000604051905081810181811067ffffffffffffffff8211171561536b5761536a6157cf565b5b8060405250919050565b600067ffffffffffffffff8211156153905761538f6157cf565b5b601f19601f8301169050602081019050919050565b600067ffffffffffffffff8211156153c0576153bf6157cf565b5b601f19601f8301169050602081019050919050565b6000819050602082019050919050565b60008190508160005260206000209050919050565b600081519050919050565b600081519050919050565b600081519050919050565b6000602082019050919050565b600082825260208201905092915050565b600082825260208201905092915050565b600081905092915050565b600082825260208201905092915050565b600081905092915050565b600061547c82615602565b915061548783615602565b9250827fffffffffffffffffffffffffffffffffffffffffffffffffffffffffffffffff038211156154bc576154bb615742565b5b828201905092915050565b60006154d282615602565b91506154dd83615602565b9250826154ed576154ec615771565b5b828204905092915050565b600061550382615602565b915061550e83615602565b9250817fffffffffffffffffffffffffffffffffffffffffffffffffffffffffffffffff048311821515161561554757615546615742565b5b828202905092915050565b600061555d82615602565b915061556883615602565b92508282101561557b5761557a615742565b5b828203905092915050565b6000615591826155e2565b9050919050565b60006155a3826155e2565b9050919050565b60008115159050919050565b60007fffffffff0000000000000000000000000000000000000000000000000000000082169050919050565b600073ffffffffffffffffffffffffffffffffffffffff82169050919050565b6000819050919050565b60006156178261561e565b9050919050565b6000615629826155e2565b9050919050565b600061563b82615602565b9050919050565b600061564d82615602565b9050919050565b82818337600083830152505050565b60005b83811015615681578082015181840152602081019050615666565b83811115615690576000848401525b50505050565b600060028204905060018216806156ae57607f821691505b602082108114156156c2576156c16157a0565b5b50919050565b60006156d382615602565b91507fffffffffffffffffffffffffffffffffffffffffffffffffffffffffffffffff82141561570657615705615742565b5b600182019050919050565b600061571c82615602565b915061572783615602565b92508261573757615736615771565b5b828206905092915050565b7f4e487b7100000000000000000000000000000000000000000000000000000000600052601160045260246000fd5b7f4e487b7100000000000000000000000000000000000000000000000000000000600052601260045260246000fd5b7f4e487b7100000000000000000000000000000000000000000000000000000000600052602260045260246000fd5b7f4e487b7100000000000000000000000000000000000000000000000000000000600052604160045260246000fd5b6000601f19601f8301169050919050565b61581881615586565b811461582357600080fd5b50565b61582f81615598565b811461583a57600080fd5b50565b615846816155aa565b811461585157600080fd5b50565b61585d816155b6565b811461586857600080fd5b50565b61587481615602565b811461587f57600080fd5b5056fea264697066735822122062c6f7a3659259b1a58768beb0e47f9a89eb4ed534d885bd74503de09521a4c764736f6c63430008000033608060405234801561001057600080fd5b5061002d61002261003260201b60201c565b61003a60201b60201c565b6100fe565b600033905090565b60008060009054906101000a900473ffffffffffffffffffffffffffffffffffffffff169050816000806101000a81548173ffffffffffffffffffffffffffffffffffffffff021916908373ffffffffffffffffffffffffffffffffffffffff1602179055508173ffffffffffffffffffffffffffffffffffffffff168173ffffffffffffffffffffffffffffffffffffffff167f8be0079c531659141344cd1fd0a4f28419497f9722a3daafe3b4186f6b6457e060405160405180910390a35050565b610bc08061010d6000396000f3fe6080604052600436106100555760003560e01c806351cff8d91461005a578063715018a6146100835780638da5cb5b1461009a578063e3a9db1a146100c5578063f2fde38b14610102578063f340fa011461012b575b600080fd5b34801561006657600080fd5b50610081600480360381019061007c91906107f5565b610147565b005b34801561008f57600080fd5b506100986102c7565b005b3480156100a657600080fd5b506100af61034f565b6040516100bc91906109b7565b60405180910390f35b3480156100d157600080fd5b506100ec60048036038101906100e791906107cc565b610378565b6040516100f99190610a52565b60405180910390f35b34801561010e57600080fd5b50610129600480360381019061012491906107cc565b6103c1565b005b610145600480360381019061014091906107cc565b6104b9565b005b61014f6105e2565b73ffffffffffffffffffffffffffffffffffffffff1661016d61034f565b73ffffffffffffffffffffffffffffffffffffffff16146101c3576040517f08c379a00000000000000000000000000000000000000000000000000000000081526004016101ba90610a32565b60405180910390fd5b6000600160008373ffffffffffffffffffffffffffffffffffffffff1673ffffffffffffffffffffffffffffffffffffffff1681526020019081526020016000205490506000600160008473ffffffffffffffffffffffffffffffffffffffff1673ffffffffffffffffffffffffffffffffffffffff16815260200190815260200160002081905550610275818373ffffffffffffffffffffffffffffffffffffffff166105ea90919063ffffffff16565b8173ffffffffffffffffffffffffffffffffffffffff167f7084f5476618d8e60b11ef0d7d3f06914655adb8793e28ff7f018d4c76d505d5826040516102bb9190610a52565b60405180910390a25050565b6102cf6105e2565b73ffffffffffffffffffffffffffffffffffffffff166102ed61034f565b73ffffffffffffffffffffffffffffffffffffffff1614610343576040517f08c379a000000000000000000000000000000000000000000000000000000000815260040161033a90610a32565b60405180910390fd5b61034d60006106de565b565b60008060009054906101000a900473ffffffffffffffffffffffffffffffffffffffff16905090565b6000600160008373ffffffffffffffffffffffffffffffffffffffff1673ffffffffffffffffffffffffffffffffffffffff168152602001908152602001600020549050919050565b6103c96105e2565b73ffffffffffffffffffffffffffffffffffffffff166103e761034f565b73ffffffffffffffffffffffffffffffffffffffff161461043d576040517f08c379a000000000000000000000000000000000000000000000000000000000815260040161043490610a32565b60405180910390fd5b600073ffffffffffffffffffffffffffffffffffffffff168173ffffffffffffffffffffffffffffffffffffffff1614156104ad576040517f08c379a00000000000000000000000000000000000000000000000000000000081526004016104a4906109d2565b60405180910390fd5b6104b6816106de565b50565b6104c16105e2565b73ffffffffffffffffffffffffffffffffffffffff166104df61034f565b73ffffffffffffffffffffffffffffffffffffffff1614610535576040517f08c379a000000000000000000000000000000000000000000000000000000000815260040161052c90610a32565b60405180910390fd5b600034905080600160008473ffffffffffffffffffffffffffffffffffffffff1673ffffffffffffffffffffffffffffffffffffffff16815260200190815260200160002060008282546105899190610a89565b925050819055508173ffffffffffffffffffffffffffffffffffffffff167f2da466a7b24304f47e87fa2e1e5a81b9831ce54fec19055ce277ca2f39ba42c4826040516105d69190610a52565b60405180910390a25050565b600033905090565b8047101561062d576040517f08c379a000000000000000000000000000000000000000000000000000000000815260040161062490610a12565b60405180910390fd5b60008273ffffffffffffffffffffffffffffffffffffffff1682604051610653906109a2565b60006040518083038185875af1925050503d8060008114610690576040519150601f19603f3d011682016040523d82523d6000602084013e610695565b606091505b50509050806106d9576040517f08c379a00000000000000000000000000000000000000000000000000000000081526004016106d0906109f2565b60405180910390fd5b505050565b60008060009054906101000a900473ffffffffffffffffffffffffffffffffffffffff169050816000806101000a81548173ffffffffffffffffffffffffffffffffffffffff021916908373ffffffffffffffffffffffffffffffffffffffff1602179055508173ffffffffffffffffffffffffffffffffffffffff168173ffffffffffffffffffffffffffffffffffffffff167f8be0079c531659141344cd1fd0a4f28419497f9722a3daafe3b4186f6b6457e060405160405180910390a35050565b6000813590506107b181610b5c565b92915050565b6000813590506107c681610b73565b92915050565b6000602082840312156107de57600080fd5b60006107ec848285016107a2565b91505092915050565b60006020828403121561080757600080fd5b6000610815848285016107b7565b91505092915050565b61082781610adf565b82525050565b600061083a602683610a78565b91507f4f776e61626c653a206e6577206f776e657220697320746865207a65726f206160008301527f64647265737300000000000000000000000000000000000000000000000000006020830152604082019050919050565b60006108a0603a83610a78565b91507f416464726573733a20756e61626c6520746f2073656e642076616c75652c207260008301527f6563697069656e74206d617920686176652072657665727465640000000000006020830152604082019050919050565b6000610906601d83610a78565b91507f416464726573733a20696e73756666696369656e742062616c616e63650000006000830152602082019050919050565b6000610946602083610a78565b91507f4f776e61626c653a2063616c6c6572206973206e6f7420746865206f776e65726000830152602082019050919050565b6000610986600083610a6d565b9150600082019050919050565b61099c81610b23565b82525050565b60006109ad82610979565b9150819050919050565b60006020820190506109cc600083018461081e565b92915050565b600060208201905081810360008301526109eb8161082d565b9050919050565b60006020820190508181036000830152610a0b81610893565b9050919050565b60006020820190508181036000830152610a2b816108f9565b9050919050565b60006020820190508181036000830152610a4b81610939565b9050919050565b6000602082019050610a676000830184610993565b92915050565b600081905092915050565b600082825260208201905092915050565b6000610a9482610b23565b9150610a9f83610b23565b9250827fffffffffffffffffffffffffffffffffffffffffffffffffffffffffffffffff03821115610ad457610ad3610b2d565b5b828201905092915050565b6000610aea82610b03565b9050919050565b6000610afc82610b03565b9050919050565b600073ffffffffffffffffffffffffffffffffffffffff82169050919050565b6000819050919050565b7f4e487b7100000000000000000000000000000000000000000000000000000000600052601160045260246000fd5b610b6581610adf565b8114610b7057600080fd5b50565b610b7c81610af1565b8114610b8757600080fd5b5056fea26469706673582212204e8ab707adc9ee645b828ddc4f791bd246fea3a80e8eeba1ce50ca1d3c28c2cb64736f6c63430008000033",
  "immutableReferences": {
    "111": [
      {
        "length": 32,
        "start": 4819
      },
      {
        "length": 32,
        "start": 10097
      },
      {
        "length": 32,
        "start": 12250
      }
    ]
  },
  "source": "// SPDX-License-Identifier: GPL-3.0\n\npragma solidity >=0.4.22 <0.9.0;\n\nimport \"@openzeppelin/contracts/token/ERC721/extensions/ERC721Enumerable.sol\";\nimport \"@openzeppelin/contracts/access/Ownable.sol\";\nimport \"@openzeppelin/contracts/security/PullPayment.sol\";\nimport \"@openzeppelin/contracts/token/ERC1155/ERC1155.sol\";\n\n\ncontract MariesCyborgs is ERC721Enumerable, Ownable, PullPayment {\n    using Strings for uint256;\n\n    ERC1155 public memberships;\n    string public baseURI;\n    string public baseExtension = \".json\";\n\n    //Price\n    uint256 public publicCost = 400 ether;\n    uint256 public EbisusbayMemberPrice = 350 ether;\n    uint256 public whiteListCost = 300 ether;\n\n    //Restrictions\n    uint256 public maxSupply = 2500;\n    uint256 public maxMintAmount = 25;\n    uint256 public nftPerAddressLimit = 50;\n\n    //Ebisusbay FEE : 5%\n    uint public ebisusbayFee = 5;\n    // EbisusbayWallet\n    address public ebisusbayWallet = 0x454cfAa623A629CC0b4017aEb85d54C42e91479d;\n    address public memberShipAddress = 0x3F1590A5984C89e6d5831bFB76788F3517Cdf034;\n\n    bool public paused = false;\n    bool public onlyWhitelisted = false;\n\n    mapping(address => uint256) public addressMintedBalance;\n    mapping(address => bool) public whitelistedAddresses;\n\n    constructor(\n        string memory _name,\n        string memory _symbol,\n        string memory _initBaseURI\n    ) ERC721(_name, _symbol) {\n        setBaseURI(_initBaseURI);\n    }\n\n\n    // internal\n    function _baseURI() internal view virtual override returns (string memory) {\n        return baseURI;\n    }\n\n    // Mint Function for White-List and Public Sale\n    event MintEvent(address indexed _from, uint256 indexed mintAmount);\n\n    function mint(uint256 _mintAmount) public payable {\n        require(!paused, \"the contract is paused\");\n        uint256 supply = totalSupply();\n        require(_mintAmount > 0, \"need to mint at least 1 NFT\");\n        require(\n            _mintAmount <= maxMintAmount,\n            \"max mint amount per session exceeded\"\n        );\n        require((supply + _mintAmount) <= maxSupply, \"max NFT limit exceeded\");\n\n        if (msg.sender != owner()) {\n            if (onlyWhitelisted == true) {\n                require(verifyUser(msg.sender), \"user is not whitelisted\");\n            }\n\n            uint256 ownerMintedCount = addressMintedBalance[msg.sender];\n            require(\n                (ownerMintedCount + _mintAmount) <= nftPerAddressLimit,\n                \"max NFT per address exceeded\"\n            );\n\n            if (verifyUser(msg.sender)) {\n                require(\n                    msg.value >= whiteListCost,\n                    \"insufficient funds\"\n                );\n                require(_mintAmount == 1, \"only 1 for White-List\");\n                 addressMintedBalance[msg.sender]++;\n            _safeMint(msg.sender, supply + 1);\n            whitelistedAddresses[msg.sender] = false;\n\n            } else {\n\n                uint amountFee;\n                if (isEbisusBayMember(msg.sender) && msg.sender == memberShipAddress ) {\n                require(\n                    msg.value >= (EbisusbayMemberPrice * _mintAmount),\n                    \"insufficient funds\"\n                );\n                      amountFee = ( (EbisusbayMemberPrice * _mintAmount) * ebisusbayFee) / 100;\n                } else {\n                require(\n                    msg.value >= (publicCost * _mintAmount),\n                    \"insufficient funds\"\n                );\n                      amountFee = ( (publicCost * _mintAmount) * ebisusbayFee) / 100;\n                }\n\n                \n\n                          for (uint256 i = 1; i <= _mintAmount; i++) {\n            addressMintedBalance[msg.sender]++;\n            _safeMint(msg.sender, supply + i);\n        }\n             _asyncTransfer(ebisusbayWallet,  amountFee);\n\n            }\n        } else {\n                                      for (uint256 i = 1; i <= _mintAmount; i++) {\n            addressMintedBalance[msg.sender]++;\n            _safeMint(msg.sender, supply + i);\n        }\n        }\n\n   \n\n       \n\n        emit MintEvent(msg.sender, _mintAmount);\n    }\n\n    function walletOfOwner(address _owner)\n        public\n        view\n        returns (uint256[] memory)\n    {\n        require(_owner != address(0), \"not address 0\");\n        uint256 ownerTokenCount = balanceOf(_owner);\n        uint256[] memory tokenIds = new uint256[](ownerTokenCount);\n        for (uint256 i; i < ownerTokenCount; i++) {\n            tokenIds[i] = tokenOfOwnerByIndex(_owner, i);\n        }\n        return tokenIds;\n    }\n\n    function tokenURI(uint256 tokenId)\n        public\n        view\n        virtual\n        override\n        returns (string memory)\n    {\n        require(\n            _exists(tokenId),\n            \"ERC721Metadata: URI query for nonexistent token\"\n        );\n\n\n\n        string memory currentBaseURI = _baseURI();\n        return\n            bytes(currentBaseURI).length > 0\n                ? string(\n                    abi.encodePacked(\n                        currentBaseURI,\n                        tokenId.toString(),\n                        baseExtension\n                    )\n                )\n                : \"\";\n    }\n\n    function setBaseURI(string memory _newBaseURI) public onlyOwner {\n        baseURI = _newBaseURI;\n    }\n\n    function setBaseExtension(string memory _newBaseExtension)\n        public\n        onlyOwner\n    {\n        baseExtension = _newBaseExtension;\n    }\n\n    function pause(bool _state) public onlyOwner {\n        paused = _state;\n    }\n\n    function withdraw() public payable onlyOwner {\n        (bool os, ) = payable(owner()).call{value: address(this).balance}(\"\");\n        require(os);\n    }\n\n    // White List\n\n    function setAllowList(address[] calldata addresses) public onlyOwner {\n          \n        for (uint256 i = 0; i < addresses.length; i++) {\n             require(addresses[i] != address(0), \"Invalid address\");\n            whitelistedAddresses[addresses[i]] = true;\n        }\n    }\n\n    function verifyUser(address _whitelistedAddress)\n        public\n        view\n        returns (bool)\n    {\n        require(_whitelistedAddress != address(0), \"not address 0\");\n        return whitelistedAddresses[_whitelistedAddress];\n    }\n\n    function setOnlyWhitelisted(bool _state) public onlyOwner {\n        onlyWhitelisted = _state;\n    }\n\n    // End of White List;\n\n    function getBalance() public view onlyOwner returns(uint256){\n        return address(this).balance;\n    }\n\n    // Ebisusbay Member\n     function isEbisusBayMember(address _address) public view returns (bool) {\n        return memberships.balanceOf(_address, 1) > 0 || memberships.balanceOf(_address, 2) > 0;\n    }\n\n        function setMemberShipAddress(address _address) public onlyOwner {\n        memberShipAddress = _address;\n    }\n\n}\n",
  "sourcePath": "/home/romain/dev/marieNft/contracts/MariesCyborgs.sol",
  "compiler": {
    "name": "solc",
    "version": "0.8.0+commit.c7dfd78e.Emscripten.clang"
  },
  "schemaVersion": "3.4.4",
  "updatedAt": "2022-01-20T23:05:03.930Z",
  "networkType": "ethereum",
  "devdoc": {
    "kind": "dev",
    "methods": {
      "approve(address,uint256)": {
        "details": "See {IERC721-approve}."
      },
      "balanceOf(address)": {
        "details": "See {IERC721-balanceOf}."
      },
      "getApproved(uint256)": {
        "details": "See {IERC721-getApproved}."
      },
      "isApprovedForAll(address,address)": {
        "details": "See {IERC721-isApprovedForAll}."
      },
      "name()": {
        "details": "See {IERC721Metadata-name}."
      },
      "owner()": {
        "details": "Returns the address of the current owner."
      },
      "ownerOf(uint256)": {
        "details": "See {IERC721-ownerOf}."
      },
      "payments(address)": {
        "details": "Returns the payments owed to an address.",
        "params": {
          "dest": "The creditor's address."
        }
      },
      "renounceOwnership()": {
        "details": "Leaves the contract without owner. It will not be possible to call `onlyOwner` functions anymore. Can only be called by the current owner. NOTE: Renouncing ownership will leave the contract without an owner, thereby removing any functionality that is only available to the owner."
      },
      "safeTransferFrom(address,address,uint256)": {
        "details": "See {IERC721-safeTransferFrom}."
      },
      "safeTransferFrom(address,address,uint256,bytes)": {
        "details": "See {IERC721-safeTransferFrom}."
      },
      "setApprovalForAll(address,bool)": {
        "details": "See {IERC721-setApprovalForAll}."
      },
      "supportsInterface(bytes4)": {
        "details": "See {IERC165-supportsInterface}."
      },
      "symbol()": {
        "details": "See {IERC721Metadata-symbol}."
      },
      "tokenByIndex(uint256)": {
        "details": "See {IERC721Enumerable-tokenByIndex}."
      },
      "tokenOfOwnerByIndex(address,uint256)": {
        "details": "See {IERC721Enumerable-tokenOfOwnerByIndex}."
      },
      "tokenURI(uint256)": {
        "details": "See {IERC721Metadata-tokenURI}."
      },
      "totalSupply()": {
        "details": "See {IERC721Enumerable-totalSupply}."
      },
      "transferFrom(address,address,uint256)": {
        "details": "See {IERC721-transferFrom}."
      },
      "transferOwnership(address)": {
        "details": "Transfers ownership of the contract to a new account (`newOwner`). Can only be called by the current owner."
      },
      "withdrawPayments(address)": {
        "details": "Withdraw accumulated payments, forwarding all gas to the recipient. Note that _any_ account can call this function, not just the `payee`. This means that contracts unaware of the `PullPayment` protocol can still receive funds this way, by having a separate account call {withdrawPayments}. WARNING: Forwarding all gas opens the door to reentrancy vulnerabilities. Make sure you trust the recipient, or are either following the checks-effects-interactions pattern or using {ReentrancyGuard}.",
        "params": {
          "payee": "Whose payments will be withdrawn."
        }
      }
    },
    "version": 1
  },
  "userdoc": {
    "kind": "user",
    "methods": {},
    "version": 1
  }
}