{
  "contractName": "MariesCyborgs",
  "abi": [
    {
      "inputs": [
        {
          "internalType": "string",
          "name": "_name",
          "type": "string"
        },
        {
          "internalType": "string",
          "name": "_symbol",
          "type": "string"
        },
        {
          "internalType": "string",
          "name": "_initBaseURI",
          "type": "string"
        }
      ],
      "stateMutability": "nonpayable",
      "type": "constructor"
    },
    {
      "anonymous": false,
      "inputs": [
        {
          "indexed": true,
          "internalType": "address",
          "name": "owner",
          "type": "address"
        },
        {
          "indexed": true,
          "internalType": "address",
          "name": "approved",
          "type": "address"
        },
        {
          "indexed": true,
          "internalType": "uint256",
          "name": "tokenId",
          "type": "uint256"
        }
      ],
      "name": "Approval",
      "type": "event"
    },
    {
      "anonymous": false,
      "inputs": [
        {
          "indexed": true,
          "internalType": "address",
          "name": "owner",
          "type": "address"
        },
        {
          "indexed": true,
          "internalType": "address",
          "name": "operator",
          "type": "address"
        },
        {
          "indexed": false,
          "internalType": "bool",
          "name": "approved",
          "type": "bool"
        }
      ],
      "name": "ApprovalForAll",
      "type": "event"
    },
    {
      "anonymous": false,
      "inputs": [
        {
          "indexed": true,
          "internalType": "address",
          "name": "_from",
          "type": "address"
        },
        {
          "indexed": true,
          "internalType": "uint256",
          "name": "mintAmount",
          "type": "uint256"
        }
      ],
      "name": "MintEvent",
      "type": "event"
    },
    {
      "anonymous": false,
      "inputs": [
        {
          "indexed": true,
          "internalType": "address",
          "name": "previousOwner",
          "type": "address"
        },
        {
          "indexed": true,
          "internalType": "address",
          "name": "newOwner",
          "type": "address"
        }
      ],
      "name": "OwnershipTransferred",
      "type": "event"
    },
    {
      "anonymous": false,
      "inputs": [
        {
          "indexed": true,
          "internalType": "address",
          "name": "from",
          "type": "address"
        },
        {
          "indexed": true,
          "internalType": "address",
          "name": "to",
          "type": "address"
        },
        {
          "indexed": true,
          "internalType": "uint256",
          "name": "tokenId",
          "type": "uint256"
        }
      ],
      "name": "Transfer",
      "type": "event"
    },
    {
      "inputs": [
        {
          "internalType": "address",
          "name": "",
          "type": "address"
        }
      ],
      "name": "addressMintedBalance",
      "outputs": [
        {
          "internalType": "uint256",
          "name": "",
          "type": "uint256"
        }
      ],
      "stateMutability": "view",
      "type": "function",
      "constant": true
    },
    {
      "inputs": [
        {
          "internalType": "address",
          "name": "to",
          "type": "address"
        },
        {
          "internalType": "uint256",
          "name": "tokenId",
          "type": "uint256"
        }
      ],
      "name": "approve",
      "outputs": [],
      "stateMutability": "nonpayable",
      "type": "function"
    },
    {
      "inputs": [
        {
          "internalType": "address",
          "name": "owner",
          "type": "address"
        }
      ],
      "name": "balanceOf",
      "outputs": [
        {
          "internalType": "uint256",
          "name": "",
          "type": "uint256"
        }
      ],
      "stateMutability": "view",
      "type": "function",
      "constant": true
    },
    {
      "inputs": [],
      "name": "baseExtension",
      "outputs": [
        {
          "internalType": "string",
          "name": "",
          "type": "string"
        }
      ],
      "stateMutability": "view",
      "type": "function",
      "constant": true
    },
    {
      "inputs": [],
      "name": "baseURI",
      "outputs": [
        {
          "internalType": "string",
          "name": "",
          "type": "string"
        }
      ],
      "stateMutability": "view",
      "type": "function",
      "constant": true
    },
    {
      "inputs": [],
      "name": "ebisusbayFee",
      "outputs": [
        {
          "internalType": "uint256",
          "name": "",
          "type": "uint256"
        }
      ],
      "stateMutability": "view",
      "type": "function",
      "constant": true
    },
    {
      "inputs": [],
      "name": "ebisusbayWallet",
      "outputs": [
        {
          "internalType": "address",
          "name": "",
          "type": "address"
        }
      ],
      "stateMutability": "view",
      "type": "function",
      "constant": true
    },
    {
      "inputs": [
        {
          "internalType": "uint256",
          "name": "tokenId",
          "type": "uint256"
        }
      ],
      "name": "getApproved",
      "outputs": [
        {
          "internalType": "address",
          "name": "",
          "type": "address"
        }
      ],
      "stateMutability": "view",
      "type": "function",
      "constant": true
    },
    {
      "inputs": [
        {
          "internalType": "address",
          "name": "owner",
          "type": "address"
        },
        {
          "internalType": "address",
          "name": "operator",
          "type": "address"
        }
      ],
      "name": "isApprovedForAll",
      "outputs": [
        {
          "internalType": "bool",
          "name": "",
          "type": "bool"
        }
      ],
      "stateMutability": "view",
      "type": "function",
      "constant": true
    },
    {
      "inputs": [],
      "name": "maxMintAmount",
      "outputs": [
        {
          "internalType": "uint256",
          "name": "",
          "type": "uint256"
        }
      ],
      "stateMutability": "view",
      "type": "function",
      "constant": true
    },
    {
      "inputs": [],
      "name": "maxSupply",
      "outputs": [
        {
          "internalType": "uint256",
          "name": "",
          "type": "uint256"
        }
      ],
      "stateMutability": "view",
      "type": "function",
      "constant": true
    },
    {
      "inputs": [],
      "name": "name",
      "outputs": [
        {
          "internalType": "string",
          "name": "",
          "type": "string"
        }
      ],
      "stateMutability": "view",
      "type": "function",
      "constant": true
    },
    {
      "inputs": [],
      "name": "nftPerAddressLimit",
      "outputs": [
        {
          "internalType": "uint256",
          "name": "",
          "type": "uint256"
        }
      ],
      "stateMutability": "view",
      "type": "function",
      "constant": true
    },
    {
      "inputs": [],
      "name": "onlyWhitelisted",
      "outputs": [
        {
          "internalType": "bool",
          "name": "",
          "type": "bool"
        }
      ],
      "stateMutability": "view",
      "type": "function",
      "constant": true
    },
    {
      "inputs": [],
      "name": "owner",
      "outputs": [
        {
          "internalType": "address",
          "name": "",
          "type": "address"
        }
      ],
      "stateMutability": "view",
      "type": "function",
      "constant": true
    },
    {
      "inputs": [
        {
          "internalType": "uint256",
          "name": "tokenId",
          "type": "uint256"
        }
      ],
      "name": "ownerOf",
      "outputs": [
        {
          "internalType": "address",
          "name": "",
          "type": "address"
        }
      ],
      "stateMutability": "view",
      "type": "function",
      "constant": true
    },
    {
      "inputs": [],
      "name": "paused",
      "outputs": [
        {
          "internalType": "bool",
          "name": "",
          "type": "bool"
        }
      ],
      "stateMutability": "view",
      "type": "function",
      "constant": true
    },
    {
      "inputs": [
        {
          "internalType": "address",
          "name": "dest",
          "type": "address"
        }
      ],
      "name": "payments",
      "outputs": [
        {
          "internalType": "uint256",
          "name": "",
          "type": "uint256"
        }
      ],
      "stateMutability": "view",
      "type": "function",
      "constant": true
    },
    {
      "inputs": [],
      "name": "publicCost",
      "outputs": [
        {
          "internalType": "uint256",
          "name": "",
          "type": "uint256"
        }
      ],
      "stateMutability": "view",
      "type": "function",
      "constant": true
    },
    {
      "inputs": [],
      "name": "renounceOwnership",
      "outputs": [],
      "stateMutability": "nonpayable",
      "type": "function"
    },
    {
      "inputs": [
        {
          "internalType": "address",
          "name": "from",
          "type": "address"
        },
        {
          "internalType": "address",
          "name": "to",
          "type": "address"
        },
        {
          "internalType": "uint256",
          "name": "tokenId",
          "type": "uint256"
        }
      ],
      "name": "safeTransferFrom",
      "outputs": [],
      "stateMutability": "nonpayable",
      "type": "function"
    },
    {
      "inputs": [
        {
          "internalType": "address",
          "name": "from",
          "type": "address"
        },
        {
          "internalType": "address",
          "name": "to",
          "type": "address"
        },
        {
          "internalType": "uint256",
          "name": "tokenId",
          "type": "uint256"
        },
        {
          "internalType": "bytes",
          "name": "_data",
          "type": "bytes"
        }
      ],
      "name": "safeTransferFrom",
      "outputs": [],
      "stateMutability": "nonpayable",
      "type": "function"
    },
    {
      "inputs": [
        {
          "internalType": "address",
          "name": "operator",
          "type": "address"
        },
        {
          "internalType": "bool",
          "name": "approved",
          "type": "bool"
        }
      ],
      "name": "setApprovalForAll",
      "outputs": [],
      "stateMutability": "nonpayable",
      "type": "function"
    },
    {
      "inputs": [
        {
          "internalType": "bytes4",
          "name": "interfaceId",
          "type": "bytes4"
        }
      ],
      "name": "supportsInterface",
      "outputs": [
        {
          "internalType": "bool",
          "name": "",
          "type": "bool"
        }
      ],
      "stateMutability": "view",
      "type": "function",
      "constant": true
    },
    {
      "inputs": [],
      "name": "symbol",
      "outputs": [
        {
          "internalType": "string",
          "name": "",
          "type": "string"
        }
      ],
      "stateMutability": "view",
      "type": "function",
      "constant": true
    },
    {
      "inputs": [
        {
          "internalType": "uint256",
          "name": "index",
          "type": "uint256"
        }
      ],
      "name": "tokenByIndex",
      "outputs": [
        {
          "internalType": "uint256",
          "name": "",
          "type": "uint256"
        }
      ],
      "stateMutability": "view",
      "type": "function",
      "constant": true
    },
    {
      "inputs": [
        {
          "internalType": "address",
          "name": "owner",
          "type": "address"
        },
        {
          "internalType": "uint256",
          "name": "index",
          "type": "uint256"
        }
      ],
      "name": "tokenOfOwnerByIndex",
      "outputs": [
        {
          "internalType": "uint256",
          "name": "",
          "type": "uint256"
        }
      ],
      "stateMutability": "view",
      "type": "function",
      "constant": true
    },
    {
      "inputs": [],
      "name": "totalSupply",
      "outputs": [
        {
          "internalType": "uint256",
          "name": "",
          "type": "uint256"
        }
      ],
      "stateMutability": "view",
      "type": "function",
      "constant": true
    },
    {
      "inputs": [
        {
          "internalType": "address",
          "name": "from",
          "type": "address"
        },
        {
          "internalType": "address",
          "name": "to",
          "type": "address"
        },
        {
          "internalType": "uint256",
          "name": "tokenId",
          "type": "uint256"
        }
      ],
      "name": "transferFrom",
      "outputs": [],
      "stateMutability": "nonpayable",
      "type": "function"
    },
    {
      "inputs": [
        {
          "internalType": "address",
          "name": "newOwner",
          "type": "address"
        }
      ],
      "name": "transferOwnership",
      "outputs": [],
      "stateMutability": "nonpayable",
      "type": "function"
    },
    {
      "inputs": [],
      "name": "whiteListCost",
      "outputs": [
        {
          "internalType": "uint256",
          "name": "",
          "type": "uint256"
        }
      ],
      "stateMutability": "view",
      "type": "function",
      "constant": true
    },
    {
      "inputs": [
        {
          "internalType": "address",
          "name": "",
          "type": "address"
        }
      ],
      "name": "whitelistedAddresses",
      "outputs": [
        {
          "internalType": "bool",
          "name": "",
          "type": "bool"
        }
      ],
      "stateMutability": "view",
      "type": "function",
      "constant": true
    },
    {
      "inputs": [
        {
          "internalType": "address payable",
          "name": "payee",
          "type": "address"
        }
      ],
      "name": "withdrawPayments",
      "outputs": [],
      "stateMutability": "nonpayable",
      "type": "function"
    },
    {
      "inputs": [
        {
          "internalType": "uint256",
          "name": "_mintAmount",
          "type": "uint256"
        }
      ],
      "name": "mint",
      "outputs": [],
      "stateMutability": "payable",
      "type": "function",
      "payable": true
    },
    {
      "inputs": [
        {
          "internalType": "address",
          "name": "_owner",
          "type": "address"
        }
      ],
      "name": "walletOfOwner",
      "outputs": [
        {
          "internalType": "uint256[]",
          "name": "",
          "type": "uint256[]"
        }
      ],
      "stateMutability": "view",
      "type": "function",
      "constant": true
    },
    {
      "inputs": [
        {
          "internalType": "uint256",
          "name": "tokenId",
          "type": "uint256"
        }
      ],
      "name": "tokenURI",
      "outputs": [
        {
          "internalType": "string",
          "name": "",
          "type": "string"
        }
      ],
      "stateMutability": "view",
      "type": "function",
      "constant": true
    },
    {
      "inputs": [
        {
          "internalType": "string",
          "name": "_newBaseURI",
          "type": "string"
        }
      ],
      "name": "setBaseURI",
      "outputs": [],
      "stateMutability": "nonpayable",
      "type": "function"
    },
    {
      "inputs": [
        {
          "internalType": "string",
          "name": "_newBaseExtension",
          "type": "string"
        }
      ],
      "name": "setBaseExtension",
      "outputs": [],
      "stateMutability": "nonpayable",
      "type": "function"
    },
    {
      "inputs": [
        {
          "internalType": "bool",
          "name": "_state",
          "type": "bool"
        }
      ],
      "name": "pause",
      "outputs": [],
      "stateMutability": "nonpayable",
      "type": "function"
    },
    {
      "inputs": [],
      "name": "withdraw",
      "outputs": [],
      "stateMutability": "payable",
      "type": "function",
      "payable": true
    },
    {
      "inputs": [
        {
          "internalType": "address[]",
          "name": "addresses",
          "type": "address[]"
        }
      ],
      "name": "setAllowList",
      "outputs": [],
      "stateMutability": "nonpayable",
      "type": "function"
    },
    {
      "inputs": [
        {
          "internalType": "address",
          "name": "_whitelistedAddress",
          "type": "address"
        }
      ],
      "name": "verifyUser",
      "outputs": [
        {
          "internalType": "bool",
          "name": "",
          "type": "bool"
        }
      ],
      "stateMutability": "view",
      "type": "function",
      "constant": true
    },
    {
      "inputs": [
        {
          "internalType": "bool",
          "name": "_state",
          "type": "bool"
        }
      ],
      "name": "setOnlyWhitelisted",
      "outputs": [],
      "stateMutability": "nonpayable",
      "type": "function"
    },
    {
      "inputs": [],
      "name": "getBalance",
      "outputs": [
        {
          "internalType": "uint256",
          "name": "",
          "type": "uint256"
        }
      ],
      "stateMutability": "view",
      "type": "function",
      "constant": true
    }
  ],
  "bytecode": "0x60a06040526040518060400160405280600581526020017f2e6a736f6e000000000000000000000000000000000000000000000000000000815250600c908051906020019062000051929190620003b2565b50671bc16d674ec80000600d55670de0b6b3a7640000600e556109c4600f5560196010556032601155600560125573454cfaa623a629cc0b4017aeb85d54c42e91479d601360006101000a81548173ffffffffffffffffffffffffffffffffffffffff021916908373ffffffffffffffffffffffffffffffffffffffff1602179055506000601360146101000a81548160ff0219169083151502179055506000601360156101000a81548160ff0219169083151502179055503480156200011757600080fd5b50604051620067643803806200676483398181016040528101906200013d9190620004e2565b8282816000908051906020019062000157929190620003b2565b50806001908051906020019062000170929190620003b2565b50505062000193620001876200020f60201b60201c565b6200021760201b60201c565b604051620001a19062000443565b604051809103906000f080158015620001be573d6000803e3d6000fd5b5073ffffffffffffffffffffffffffffffffffffffff1660808173ffffffffffffffffffffffffffffffffffffffff1660601b815250506200020681620002dd60201b60201c565b50505062000729565b600033905090565b6000600a60009054906101000a900473ffffffffffffffffffffffffffffffffffffffff16905081600a60006101000a81548173ffffffffffffffffffffffffffffffffffffffff021916908373ffffffffffffffffffffffffffffffffffffffff1602179055508173ffffffffffffffffffffffffffffffffffffffff168173ffffffffffffffffffffffffffffffffffffffff167f8be0079c531659141344cd1fd0a4f28419497f9722a3daafe3b4186f6b6457e060405160405180910390a35050565b620002ed6200020f60201b60201c565b73ffffffffffffffffffffffffffffffffffffffff16620003136200038860201b60201c565b73ffffffffffffffffffffffffffffffffffffffff16146200036c576040517f08c379a00000000000000000000000000000000000000000000000000000000081526004016200036390620005c5565b60405180910390fd5b80600b908051906020019062000384929190620003b2565b5050565b6000600a60009054906101000a900473ffffffffffffffffffffffffffffffffffffffff16905090565b828054620003c09062000695565b90600052602060002090601f016020900481019282620003e4576000855562000430565b82601f10620003ff57805160ff191683800117855562000430565b8280016001018555821562000430579182015b828111156200042f57825182559160200191906001019062000412565b5b5090506200043f919062000451565b5090565b610ccd8062005a9783390190565b5b808211156200046c57600081600090555060010162000452565b5090565b60006200048762000481846200061b565b620005e7565b905082815260208101848484011115620004a057600080fd5b620004ad8482856200065f565b509392505050565b600082601f830112620004c757600080fd5b8151620004d984826020860162000470565b91505092915050565b600080600060608486031215620004f857600080fd5b600084015167ffffffffffffffff8111156200051357600080fd5b6200052186828701620004b5565b935050602084015167ffffffffffffffff8111156200053f57600080fd5b6200054d86828701620004b5565b925050604084015167ffffffffffffffff8111156200056b57600080fd5b6200057986828701620004b5565b9150509250925092565b6000620005926020836200064e565b91507f4f776e61626c653a2063616c6c6572206973206e6f7420746865206f776e65726000830152602082019050919050565b60006020820190508181036000830152620005e08162000583565b9050919050565b6000604051905081810181811067ffffffffffffffff82111715620006115762000610620006fa565b5b8060405250919050565b600067ffffffffffffffff821115620006395762000638620006fa565b5b601f19601f8301169050602081019050919050565b600082825260208201905092915050565b60005b838110156200067f57808201518184015260208101905062000662565b838111156200068f576000848401525b50505050565b60006002820490506001821680620006ae57607f821691505b60208210811415620006c557620006c4620006cb565b5b50919050565b7f4e487b7100000000000000000000000000000000000000000000000000000000600052602260045260246000fd5b7f4e487b7100000000000000000000000000000000000000000000000000000000600052604160045260246000fd5b60805160601c6153416200075660003960008181610f76015281816122dc0152612b4501526153416000f3fe6080604052600436106102675760003560e01c806363378f1d11610144578063a0712d68116100b6578063c87b56dd1161007a578063c87b56dd1461092a578063d5abeb0114610967578063da3ef23f14610992578063e2982c21146109bb578063e985e9c5146109f8578063f2fde38b14610a3557610267565b8063a0712d6814610866578063a22cb46514610882578063b88d4fde146108ab578063ba7d2c76146108d4578063c6682862146108ff57610267565b8063715018a611610108578063715018a6146107785780638693da201461078f5780638da5cb5b146107ba5780639257e044146107e557806395d89b41146108105780639c70b5121461083b57610267565b806363378f1d1461067f5780636352211e146106aa5780636447c35d146106e75780636c0360eb1461071057806370a082311461073b57610267565b80632f745c59116101dd578063438b6300116101a1578063438b63001461054957806348bc5b91146105865780634d813120146105b15780634f6ccce7146105ee57806355f804b31461062b5780635c975abb1461065457610267565b80632f745c591461048757806331b3eb94146104c45780633c952764146104ed5780633ccfd60b1461051657806342842e0e1461052057610267565b8063095ea7b31161022f578063095ea7b31461037757806312065fe0146103a057806318160ddd146103cb57806318cae269146103f6578063239c70ae1461043357806323b872dd1461045e57610267565b806301ffc9a71461026c57806302329a29146102a957806306c933d8146102d257806306fdde031461030f578063081812fc1461033a575b600080fd5b34801561027857600080fd5b50610293600480360381019061028e9190613d37565b610a5e565b6040516102a09190614a3d565b60405180910390f35b3480156102b557600080fd5b506102d060048036038101906102cb9190613d0e565b610ad8565b005b3480156102de57600080fd5b506102f960048036038101906102f49190613af9565b610b71565b6040516103069190614a3d565b60405180910390f35b34801561031b57600080fd5b50610324610b91565b6040516103319190614a58565b60405180910390f35b34801561034657600080fd5b50610361600480360381019061035c9190613dca565b610c23565b60405161036e9190614999565b60405180910390f35b34801561038357600080fd5b5061039e60048036038101906103999190613c8d565b610ca8565b005b3480156103ac57600080fd5b506103b5610dc0565b6040516103c29190614dfa565b60405180910390f35b3480156103d757600080fd5b506103e0610e44565b6040516103ed9190614dfa565b60405180910390f35b34801561040257600080fd5b5061041d60048036038101906104189190613af9565b610e51565b60405161042a9190614dfa565b60405180910390f35b34801561043f57600080fd5b50610448610e69565b6040516104559190614dfa565b60405180910390f35b34801561046a57600080fd5b5061048560048036038101906104809190613b87565b610e6f565b005b34801561049357600080fd5b506104ae60048036038101906104a99190613c8d565b610ecf565b6040516104bb9190614dfa565b60405180910390f35b3480156104d057600080fd5b506104eb60048036038101906104e69190613b22565b610f74565b005b3480156104f957600080fd5b50610514600480360381019061050f9190613d0e565b611002565b005b61051e61109b565b005b34801561052c57600080fd5b5061054760048036038101906105429190613b87565b611197565b005b34801561055557600080fd5b50610570600480360381019061056b9190613af9565b6111b7565b60405161057d9190614a1b565b60405180910390f35b34801561059257600080fd5b5061059b611321565b6040516105a89190614999565b60405180910390f35b3480156105bd57600080fd5b506105d860048036038101906105d39190613af9565b611347565b6040516105e59190614a3d565b60405180910390f35b3480156105fa57600080fd5b5061061560048036038101906106109190613dca565b61140c565b6040516106229190614dfa565b60405180910390f35b34801561063757600080fd5b50610652600480360381019061064d9190613d89565b6114a3565b005b34801561066057600080fd5b50610669611539565b6040516106769190614a3d565b60405180910390f35b34801561068b57600080fd5b5061069461154c565b6040516106a19190614dfa565b60405180910390f35b3480156106b657600080fd5b506106d160048036038101906106cc9190613dca565b611552565b6040516106de9190614999565b60405180910390f35b3480156106f357600080fd5b5061070e60048036038101906107099190613cc9565b611604565b005b34801561071c57600080fd5b50610725611808565b6040516107329190614a58565b60405180910390f35b34801561074757600080fd5b50610762600480360381019061075d9190613af9565b611896565b60405161076f9190614dfa565b60405180910390f35b34801561078457600080fd5b5061078d61194e565b005b34801561079b57600080fd5b506107a46119d6565b6040516107b19190614dfa565b60405180910390f35b3480156107c657600080fd5b506107cf6119dc565b6040516107dc9190614999565b60405180910390f35b3480156107f157600080fd5b506107fa611a06565b6040516108079190614dfa565b60405180910390f35b34801561081c57600080fd5b50610825611a0c565b6040516108329190614a58565b60405180910390f35b34801561084757600080fd5b50610850611a9e565b60405161085d9190614a3d565b60405180910390f35b610880600480360381019061087b9190613dca565b611ab1565b005b34801561088e57600080fd5b506108a960048036038101906108a49190613c51565b612086565b005b3480156108b757600080fd5b506108d260048036038101906108cd9190613bd6565b61209c565b005b3480156108e057600080fd5b506108e96120fe565b6040516108f69190614dfa565b60405180910390f35b34801561090b57600080fd5b50610914612104565b6040516109219190614a58565b60405180910390f35b34801561093657600080fd5b50610951600480360381019061094c9190613dca565b612192565b60405161095e9190614a58565b60405180910390f35b34801561097357600080fd5b5061097c61223c565b6040516109899190614dfa565b60405180910390f35b34801561099e57600080fd5b506109b960048036038101906109b49190613d89565b612242565b005b3480156109c757600080fd5b506109e260048036038101906109dd9190613af9565b6122d8565b6040516109ef9190614dfa565b60405180910390f35b348015610a0457600080fd5b50610a1f6004803603810190610a1a9190613b4b565b61238a565b604051610a2c9190614a3d565b60405180910390f35b348015610a4157600080fd5b50610a5c6004803603810190610a579190613af9565b61241e565b005b60007f780e9d63000000000000000000000000000000000000000000000000000000007bffffffffffffffffffffffffffffffffffffffffffffffffffffffff1916827bffffffffffffffffffffffffffffffffffffffffffffffffffffffff19161480610ad15750610ad082612516565b5b9050919050565b610ae06125f8565b73ffffffffffffffffffffffffffffffffffffffff16610afe6119dc565b73ffffffffffffffffffffffffffffffffffffffff1614610b54576040517f08c379a0000000000000000000000000000000000000000000000000000000008152600401610b4b90614c9a565b60405180910390fd5b80601360146101000a81548160ff02191690831515021790555050565b60156020528060005260406000206000915054906101000a900460ff1681565b606060008054610ba09061511f565b80601f0160208091040260200160405190810160405280929190818152602001828054610bcc9061511f565b8015610c195780601f10610bee57610100808354040283529160200191610c19565b820191906000526020600020905b815481529060010190602001808311610bfc57829003601f168201915b5050505050905090565b6000610c2e82612600565b610c6d576040517f08c379a0000000000000000000000000000000000000000000000000000000008152600401610c6490614c7a565b60405180910390fd5b6004600083815260200190815260200160002060009054906101000a900473ffffffffffffffffffffffffffffffffffffffff169050919050565b6000610cb382611552565b90508073ffffffffffffffffffffffffffffffffffffffff168373ffffffffffffffffffffffffffffffffffffffff161415610d24576040517f08c379a0000000000000000000000000000000000000000000000000000000008152600401610d1b90614d3a565b60405180910390fd5b8073ffffffffffffffffffffffffffffffffffffffff16610d436125f8565b73ffffffffffffffffffffffffffffffffffffffff161480610d725750610d7181610d6c6125f8565b61238a565b5b610db1576040517f08c379a0000000000000000000000000000000000000000000000000000000008152600401610da890614b9a565b60405180910390fd5b610dbb838361266c565b505050565b6000610dca6125f8565b73ffffffffffffffffffffffffffffffffffffffff16610de86119dc565b73ffffffffffffffffffffffffffffffffffffffff1614610e3e576040517f08c379a0000000000000000000000000000000000000000000000000000000008152600401610e3590614c9a565b60405180910390fd5b47905090565b6000600880549050905090565b60146020528060005260406000206000915090505481565b60105481565b610e80610e7a6125f8565b82612725565b610ebf576040517f08c379a0000000000000000000000000000000000000000000000000000000008152600401610eb690614d7a565b60405180910390fd5b610eca838383612803565b505050565b6000610eda83611896565b8210610f1b576040517f08c379a0000000000000000000000000000000000000000000000000000000008152600401610f1290614a9a565b60405180910390fd5b600660008473ffffffffffffffffffffffffffffffffffffffff1673ffffffffffffffffffffffffffffffffffffffff168152602001908152602001600020600083815260200190815260200160002054905092915050565b7f000000000000000000000000000000000000000000000000000000000000000073ffffffffffffffffffffffffffffffffffffffff166351cff8d9826040518263ffffffff1660e01b8152600401610fcd91906149b4565b600060405180830381600087803b158015610fe757600080fd5b505af1158015610ffb573d6000803e3d6000fd5b5050505050565b61100a6125f8565b73ffffffffffffffffffffffffffffffffffffffff166110286119dc565b73ffffffffffffffffffffffffffffffffffffffff161461107e576040517f08c379a000000000000000000000000000000000000000000000000000000000815260040161107590614c9a565b60405180910390fd5b80601360156101000a81548160ff02191690831515021790555050565b6110a36125f8565b73ffffffffffffffffffffffffffffffffffffffff166110c16119dc565b73ffffffffffffffffffffffffffffffffffffffff1614611117576040517f08c379a000000000000000000000000000000000000000000000000000000000815260040161110e90614c9a565b60405180910390fd5b60006111216119dc565b73ffffffffffffffffffffffffffffffffffffffff164760405161114490614984565b60006040518083038185875af1925050503d8060008114611181576040519150601f19603f3d011682016040523d82523d6000602084013e611186565b606091505b505090508061119457600080fd5b50565b6111b28383836040518060200160405280600081525061209c565b505050565b6060600073ffffffffffffffffffffffffffffffffffffffff168273ffffffffffffffffffffffffffffffffffffffff161415611229576040517f08c379a000000000000000000000000000000000000000000000000000000000815260040161122090614d1a565b60405180910390fd5b600061123483611896565b905060008167ffffffffffffffff811115611278577f4e487b7100000000000000000000000000000000000000000000000000000000600052604160045260246000fd5b6040519080825280602002602001820160405280156112a65781602001602082028036833780820191505090505b50905060005b82811015611316576112be8582610ecf565b8282815181106112f7577f4e487b7100000000000000000000000000000000000000000000000000000000600052603260045260246000fd5b602002602001018181525050808061130e90615151565b9150506112ac565b508092505050919050565b601360009054906101000a900473ffffffffffffffffffffffffffffffffffffffff1681565b60008073ffffffffffffffffffffffffffffffffffffffff168273ffffffffffffffffffffffffffffffffffffffff1614156113b8576040517f08c379a00000000000000000000000000000000000000000000000000000000081526004016113af90614d1a565b60405180910390fd5b601560008373ffffffffffffffffffffffffffffffffffffffff1673ffffffffffffffffffffffffffffffffffffffff16815260200190815260200160002060009054906101000a900460ff169050919050565b6000611416610e44565b8210611457576040517f08c379a000000000000000000000000000000000000000000000000000000000815260040161144e90614d9a565b60405180910390fd5b60088281548110611491577f4e487b7100000000000000000000000000000000000000000000000000000000600052603260045260246000fd5b90600052602060002001549050919050565b6114ab6125f8565b73ffffffffffffffffffffffffffffffffffffffff166114c96119dc565b73ffffffffffffffffffffffffffffffffffffffff161461151f576040517f08c379a000000000000000000000000000000000000000000000000000000000815260040161151690614c9a565b60405180910390fd5b80600b90805190602001906115359291906138a9565b5050565b601360149054906101000a900460ff1681565b60125481565b6000806002600084815260200190815260200160002060009054906101000a900473ffffffffffffffffffffffffffffffffffffffff169050600073ffffffffffffffffffffffffffffffffffffffff168173ffffffffffffffffffffffffffffffffffffffff1614156115fb576040517f08c379a00000000000000000000000000000000000000000000000000000000081526004016115f290614bda565b60405180910390fd5b80915050919050565b61160c6125f8565b73ffffffffffffffffffffffffffffffffffffffff1661162a6119dc565b73ffffffffffffffffffffffffffffffffffffffff1614611680576040517f08c379a000000000000000000000000000000000000000000000000000000000815260040161167790614c9a565b60405180910390fd5b60005b8282905081101561180357600073ffffffffffffffffffffffffffffffffffffffff168383838181106116df577f4e487b7100000000000000000000000000000000000000000000000000000000600052603260045260246000fd5b90506020020160208101906116f49190613af9565b73ffffffffffffffffffffffffffffffffffffffff16141561174b576040517f08c379a000000000000000000000000000000000000000000000000000000000815260040161174290614a7a565b60405180910390fd5b60016015600085858581811061178a577f4e487b7100000000000000000000000000000000000000000000000000000000600052603260045260246000fd5b905060200201602081019061179f9190613af9565b73ffffffffffffffffffffffffffffffffffffffff1673ffffffffffffffffffffffffffffffffffffffff16815260200190815260200160002060006101000a81548160ff02191690831515021790555080806117fb90615151565b915050611683565b505050565b600b80546118159061511f565b80601f01602080910402602001604051908101604052809291908181526020018280546118419061511f565b801561188e5780601f106118635761010080835404028352916020019161188e565b820191906000526020600020905b81548152906001019060200180831161187157829003601f168201915b505050505081565b60008073ffffffffffffffffffffffffffffffffffffffff168273ffffffffffffffffffffffffffffffffffffffff161415611907576040517f08c379a00000000000000000000000000000000000000000000000000000000081526004016118fe90614bba565b60405180910390fd5b600360008373ffffffffffffffffffffffffffffffffffffffff1673ffffffffffffffffffffffffffffffffffffffff168152602001908152602001600020549050919050565b6119566125f8565b73ffffffffffffffffffffffffffffffffffffffff166119746119dc565b73ffffffffffffffffffffffffffffffffffffffff16146119ca576040517f08c379a00000000000000000000000000000000000000000000000000000000081526004016119c190614c9a565b60405180910390fd5b6119d46000612a5f565b565b600d5481565b6000600a60009054906101000a900473ffffffffffffffffffffffffffffffffffffffff16905090565b600e5481565b606060018054611a1b9061511f565b80601f0160208091040260200160405190810160405280929190818152602001828054611a479061511f565b8015611a945780601f10611a6957610100808354040283529160200191611a94565b820191906000526020600020905b815481529060010190602001808311611a7757829003601f168201915b5050505050905090565b601360159054906101000a900460ff1681565b601360149054906101000a900460ff1615611b01576040517f08c379a0000000000000000000000000000000000000000000000000000000008152600401611af890614cba565b60405180910390fd5b6000611b0b610e44565b905060008211611b50576040517f08c379a0000000000000000000000000000000000000000000000000000000008152600401611b4790614dda565b60405180910390fd5b601054821115611b95576040517f08c379a0000000000000000000000000000000000000000000000000000000008152600401611b8c90614c1a565b60405180910390fd5b600f548282611ba49190614f42565b1115611be5576040517f08c379a0000000000000000000000000000000000000000000000000000000008152600401611bdc90614bfa565b60405180910390fd5b611bed6119dc565b73ffffffffffffffffffffffffffffffffffffffff163373ffffffffffffffffffffffffffffffffffffffff1614611fb15760011515601360159054906101000a900460ff1615151415611c8457611c4433611347565b611c83576040517f08c379a0000000000000000000000000000000000000000000000000000000008152600401611c7a90614dba565b60405180910390fd5b5b6000601460003373ffffffffffffffffffffffffffffffffffffffff1673ffffffffffffffffffffffffffffffffffffffff1681526020019081526020016000205490506011548382611cd79190614f42565b1115611d18576040517f08c379a0000000000000000000000000000000000000000000000000000000008152600401611d0f90614b1a565b60405180910390fd5b611d2133611347565b15611e7657600e54341015611d6b576040517f08c379a0000000000000000000000000000000000000000000000000000000008152600401611d6290614d5a565b60405180910390fd5b60018314611dae576040517f08c379a0000000000000000000000000000000000000000000000000000000008152600401611da590614c5a565b60405180910390fd5b601460003373ffffffffffffffffffffffffffffffffffffffff1673ffffffffffffffffffffffffffffffffffffffff1681526020019081526020016000206000815480929190611dfe90615151565b9190505550611e1933600184611e149190614f42565b612b25565b6000601560003373ffffffffffffffffffffffffffffffffffffffff1673ffffffffffffffffffffffffffffffffffffffff16815260200190815260200160002060006101000a81548160ff021916908315150217905550611fab565b82600d54611e849190614fc9565b341015611ec6576040517f08c379a0000000000000000000000000000000000000000000000000000000008152600401611ebd90614d5a565b60405180910390fd5b6000606460125485600d54611edb9190614fc9565b611ee59190614fc9565b611eef9190614f98565b90506000600190505b848111611f7c57601460003373ffffffffffffffffffffffffffffffffffffffff1673ffffffffffffffffffffffffffffffffffffffff1681526020019081526020016000206000815480929190611f4f90615151565b9190505550611f69338286611f649190614f42565b612b25565b8080611f7490615151565b915050611ef8565b50611fa9601360009054906101000a900473ffffffffffffffffffffffffffffffffffffffff1682612b43565b505b5061203e565b6000600190505b82811161203c57601460003373ffffffffffffffffffffffffffffffffffffffff1673ffffffffffffffffffffffffffffffffffffffff168152602001908152602001600020600081548092919061200f90615151565b91905055506120293382846120249190614f42565b612b25565b808061203490615151565b915050611fb8565b505b813373ffffffffffffffffffffffffffffffffffffffff167f3fffaa5804a26fcec0d70b1d0fb0a2d0031df3a5f9c8af2127c2f4360e97b46360405160405180910390a35050565b6120986120916125f8565b8383612bd3565b5050565b6120ad6120a76125f8565b83612725565b6120ec576040517f08c379a00000000000000000000000000000000000000000000000000000000081526004016120e390614d7a565b60405180910390fd5b6120f884848484612d40565b50505050565b60115481565b600c80546121119061511f565b80601f016020809104026020016040519081016040528092919081815260200182805461213d9061511f565b801561218a5780601f1061215f5761010080835404028352916020019161218a565b820191906000526020600020905b81548152906001019060200180831161216d57829003601f168201915b505050505081565b606061219d82612600565b6121dc576040517f08c379a00000000000000000000000000000000000000000000000000000000081526004016121d390614cfa565b60405180910390fd5b60006121e6612d9c565b905060008151116122065760405180602001604052806000815250612234565b8061221084612e2e565b600c60405160200161222493929190614953565b6040516020818303038152906040525b915050919050565b600f5481565b61224a6125f8565b73ffffffffffffffffffffffffffffffffffffffff166122686119dc565b73ffffffffffffffffffffffffffffffffffffffff16146122be576040517f08c379a00000000000000000000000000000000000000000000000000000000081526004016122b590614c9a565b60405180910390fd5b80600c90805190602001906122d49291906138a9565b5050565b60007f000000000000000000000000000000000000000000000000000000000000000073ffffffffffffffffffffffffffffffffffffffff1663e3a9db1a836040518263ffffffff1660e01b81526004016123339190614999565b60206040518083038186803b15801561234b57600080fd5b505afa15801561235f573d6000803e3d6000fd5b505050506040513d601f19601f820116820180604052508101906123839190613df3565b9050919050565b6000600560008473ffffffffffffffffffffffffffffffffffffffff1673ffffffffffffffffffffffffffffffffffffffff16815260200190815260200160002060008373ffffffffffffffffffffffffffffffffffffffff1673ffffffffffffffffffffffffffffffffffffffff16815260200190815260200160002060009054906101000a900460ff16905092915050565b6124266125f8565b73ffffffffffffffffffffffffffffffffffffffff166124446119dc565b73ffffffffffffffffffffffffffffffffffffffff161461249a576040517f08c379a000000000000000000000000000000000000000000000000000000000815260040161249190614c9a565b60405180910390fd5b600073ffffffffffffffffffffffffffffffffffffffff168173ffffffffffffffffffffffffffffffffffffffff16141561250a576040517f08c379a000000000000000000000000000000000000000000000000000000000815260040161250190614ada565b60405180910390fd5b61251381612a5f565b50565b60007f80ac58cd000000000000000000000000000000000000000000000000000000007bffffffffffffffffffffffffffffffffffffffffffffffffffffffff1916827bffffffffffffffffffffffffffffffffffffffffffffffffffffffff191614806125e157507f5b5e139f000000000000000000000000000000000000000000000000000000007bffffffffffffffffffffffffffffffffffffffffffffffffffffffff1916827bffffffffffffffffffffffffffffffffffffffffffffffffffffffff1916145b806125f157506125f082612fdb565b5b9050919050565b600033905090565b60008073ffffffffffffffffffffffffffffffffffffffff166002600084815260200190815260200160002060009054906101000a900473ffffffffffffffffffffffffffffffffffffffff1673ffffffffffffffffffffffffffffffffffffffff1614159050919050565b816004600083815260200190815260200160002060006101000a81548173ffffffffffffffffffffffffffffffffffffffff021916908373ffffffffffffffffffffffffffffffffffffffff160217905550808273ffffffffffffffffffffffffffffffffffffffff166126df83611552565b73ffffffffffffffffffffffffffffffffffffffff167f8c5be1e5ebec7d5bd14f71427d1e84f3dd0314c0f7b2291e5b200ac8c7c3b92560405160405180910390a45050565b600061273082612600565b61276f576040517f08c379a000000000000000000000000000000000000000000000000000000000815260040161276690614b7a565b60405180910390fd5b600061277a83611552565b90508073ffffffffffffffffffffffffffffffffffffffff168473ffffffffffffffffffffffffffffffffffffffff1614806127e957508373ffffffffffffffffffffffffffffffffffffffff166127d184610c23565b73ffffffffffffffffffffffffffffffffffffffff16145b806127fa57506127f9818561238a565b5b91505092915050565b8273ffffffffffffffffffffffffffffffffffffffff1661282382611552565b73ffffffffffffffffffffffffffffffffffffffff1614612879576040517f08c379a000000000000000000000000000000000000000000000000000000000815260040161287090614cda565b60405180910390fd5b600073ffffffffffffffffffffffffffffffffffffffff168273ffffffffffffffffffffffffffffffffffffffff1614156128e9576040517f08c379a00000000000000000000000000000000000000000000000000000000081526004016128e090614b3a565b60405180910390fd5b6128f4838383613045565b6128ff60008261266c565b6001600360008573ffffffffffffffffffffffffffffffffffffffff1673ffffffffffffffffffffffffffffffffffffffff168152602001908152602001600020600082825461294f9190615023565b925050819055506001600360008473ffffffffffffffffffffffffffffffffffffffff1673ffffffffffffffffffffffffffffffffffffffff16815260200190815260200160002060008282546129a69190614f42565b92505081905550816002600083815260200190815260200160002060006101000a81548173ffffffffffffffffffffffffffffffffffffffff021916908373ffffffffffffffffffffffffffffffffffffffff160217905550808273ffffffffffffffffffffffffffffffffffffffff168473ffffffffffffffffffffffffffffffffffffffff167fddf252ad1be2c89b69c2b068fc378daa952ba7f163c4a11628f55a4df523b3ef60405160405180910390a4505050565b6000600a60009054906101000a900473ffffffffffffffffffffffffffffffffffffffff16905081600a60006101000a81548173ffffffffffffffffffffffffffffffffffffffff021916908373ffffffffffffffffffffffffffffffffffffffff1602179055508173ffffffffffffffffffffffffffffffffffffffff168173ffffffffffffffffffffffffffffffffffffffff167f8be0079c531659141344cd1fd0a4f28419497f9722a3daafe3b4186f6b6457e060405160405180910390a35050565b612b3f828260405180602001604052806000815250613159565b5050565b7f000000000000000000000000000000000000000000000000000000000000000073ffffffffffffffffffffffffffffffffffffffff1663f340fa0182846040518363ffffffff1660e01b8152600401612b9d9190614999565b6000604051808303818588803b158015612bb657600080fd5b505af1158015612bca573d6000803e3d6000fd5b50505050505050565b8173ffffffffffffffffffffffffffffffffffffffff168373ffffffffffffffffffffffffffffffffffffffff161415612c42576040517f08c379a0000000000000000000000000000000000000000000000000000000008152600401612c3990614b5a565b60405180910390fd5b80600560008573ffffffffffffffffffffffffffffffffffffffff1673ffffffffffffffffffffffffffffffffffffffff16815260200190815260200160002060008473ffffffffffffffffffffffffffffffffffffffff1673ffffffffffffffffffffffffffffffffffffffff16815260200190815260200160002060006101000a81548160ff0219169083151502179055508173ffffffffffffffffffffffffffffffffffffffff168373ffffffffffffffffffffffffffffffffffffffff167f17307eab39ab6107e8899845ad3d59bd9653f200f220920489ca2b5937696c3183604051612d339190614a3d565b60405180910390a3505050565b612d4b848484612803565b612d57848484846131b4565b612d96576040517f08c379a0000000000000000000000000000000000000000000000000000000008152600401612d8d90614aba565b60405180910390fd5b50505050565b6060600b8054612dab9061511f565b80601f0160208091040260200160405190810160405280929190818152602001828054612dd79061511f565b8015612e245780601f10612df957610100808354040283529160200191612e24565b820191906000526020600020905b815481529060010190602001808311612e0757829003601f168201915b5050505050905090565b60606000821415612e76576040518060400160405280600181526020017f30000000000000000000000000000000000000000000000000000000000000008152509050612fd6565b600082905060005b60008214612ea8578080612e9190615151565b915050600a82612ea19190614f98565b9150612e7e565b60008167ffffffffffffffff811115612eea577f4e487b7100000000000000000000000000000000000000000000000000000000600052604160045260246000fd5b6040519080825280601f01601f191660200182016040528015612f1c5781602001600182028036833780820191505090505b5090505b60008514612fcf57600182612f359190615023565b9150600a85612f44919061519a565b6030612f509190614f42565b60f81b818381518110612f8c577f4e487b7100000000000000000000000000000000000000000000000000000000600052603260045260246000fd5b60200101907effffffffffffffffffffffffffffffffffffffffffffffffffffffffffffff1916908160001a905350600a85612fc89190614f98565b9450612f20565b8093505050505b919050565b60007f01ffc9a7000000000000000000000000000000000000000000000000000000007bffffffffffffffffffffffffffffffffffffffffffffffffffffffff1916827bffffffffffffffffffffffffffffffffffffffffffffffffffffffff1916149050919050565b61305083838361334b565b600073ffffffffffffffffffffffffffffffffffffffff168373ffffffffffffffffffffffffffffffffffffffff1614156130935761308e81613350565b6130d2565b8173ffffffffffffffffffffffffffffffffffffffff168373ffffffffffffffffffffffffffffffffffffffff16146130d1576130d08382613399565b5b5b600073ffffffffffffffffffffffffffffffffffffffff168273ffffffffffffffffffffffffffffffffffffffff1614156131155761311081613506565b613154565b8273ffffffffffffffffffffffffffffffffffffffff168273ffffffffffffffffffffffffffffffffffffffff1614613153576131528282613649565b5b5b505050565b61316383836136c8565b61317060008484846131b4565b6131af576040517f08c379a00000000000000000000000000000000000000000000000000000000081526004016131a690614aba565b60405180910390fd5b505050565b60006131d58473ffffffffffffffffffffffffffffffffffffffff16613896565b1561333e578373ffffffffffffffffffffffffffffffffffffffff1663150b7a026131fe6125f8565b8786866040518563ffffffff1660e01b815260040161322094939291906149cf565b602060405180830381600087803b15801561323a57600080fd5b505af192505050801561326b57506040513d601f19601f820116820180604052508101906132689190613d60565b60015b6132ee573d806000811461329b576040519150601f19603f3d011682016040523d82523d6000602084013e6132a0565b606091505b506000815114156132e6576040517f08c379a00000000000000000000000000000000000000000000000000000000081526004016132dd90614aba565b60405180910390fd5b805181602001fd5b63150b7a0260e01b7bffffffffffffffffffffffffffffffffffffffffffffffffffffffff1916817bffffffffffffffffffffffffffffffffffffffffffffffffffffffff191614915050613343565b600190505b949350505050565b505050565b6008805490506009600083815260200190815260200160002081905550600881908060018154018082558091505060019003906000526020600020016000909190919091505550565b600060016133a684611896565b6133b09190615023565b9050600060076000848152602001908152602001600020549050818114613495576000600660008673ffffffffffffffffffffffffffffffffffffffff1673ffffffffffffffffffffffffffffffffffffffff168152602001908152602001600020600084815260200190815260200160002054905080600660008773ffffffffffffffffffffffffffffffffffffffff1673ffffffffffffffffffffffffffffffffffffffff168152602001908152602001600020600084815260200190815260200160002081905550816007600083815260200190815260200160002081905550505b6007600084815260200190815260200160002060009055600660008573ffffffffffffffffffffffffffffffffffffffff1673ffffffffffffffffffffffffffffffffffffffff16815260200190815260200160002060008381526020019081526020016000206000905550505050565b6000600160088054905061351a9190615023565b9050600060096000848152602001908152602001600020549050600060088381548110613570577f4e487b7100000000000000000000000000000000000000000000000000000000600052603260045260246000fd5b9060005260206000200154905080600883815481106135b8577f4e487b7100000000000000000000000000000000000000000000000000000000600052603260045260246000fd5b90600052602060002001819055508160096000838152602001908152602001600020819055506009600085815260200190815260200160002060009055600880548061362d577f4e487b7100000000000000000000000000000000000000000000000000000000600052603160045260246000fd5b6001900381819060005260206000200160009055905550505050565b600061365483611896565b905081600660008573ffffffffffffffffffffffffffffffffffffffff1673ffffffffffffffffffffffffffffffffffffffff168152602001908152602001600020600083815260200190815260200160002081905550806007600084815260200190815260200160002081905550505050565b600073ffffffffffffffffffffffffffffffffffffffff168273ffffffffffffffffffffffffffffffffffffffff161415613738576040517f08c379a000000000000000000000000000000000000000000000000000000000815260040161372f90614c3a565b60405180910390fd5b61374181612600565b15613781576040517f08c379a000000000000000000000000000000000000000000000000000000000815260040161377890614afa565b60405180910390fd5b61378d60008383613045565b6001600360008473ffffffffffffffffffffffffffffffffffffffff1673ffffffffffffffffffffffffffffffffffffffff16815260200190815260200160002060008282546137dd9190614f42565b92505081905550816002600083815260200190815260200160002060006101000a81548173ffffffffffffffffffffffffffffffffffffffff021916908373ffffffffffffffffffffffffffffffffffffffff160217905550808273ffffffffffffffffffffffffffffffffffffffff16600073ffffffffffffffffffffffffffffffffffffffff167fddf252ad1be2c89b69c2b068fc378daa952ba7f163c4a11628f55a4df523b3ef60405160405180910390a45050565b600080823b905060008111915050919050565b8280546138b59061511f565b90600052602060002090601f0160209004810192826138d7576000855561391e565b82601f106138f057805160ff191683800117855561391e565b8280016001018555821561391e579182015b8281111561391d578251825591602001919060010190613902565b5b50905061392b919061392f565b5090565b5b80821115613948576000816000905550600101613930565b5090565b600061395f61395a84614e46565b614e15565b90508281526020810184848401111561397757600080fd5b6139828482856150dd565b509392505050565b600061399d61399884614e76565b614e15565b9050828152602081018484840111156139b557600080fd5b6139c08482856150dd565b509392505050565b6000813590506139d781615298565b92915050565b6000813590506139ec816152af565b92915050565b60008083601f840112613a0457600080fd5b8235905067ffffffffffffffff811115613a1d57600080fd5b602083019150836020820283011115613a3557600080fd5b9250929050565b600081359050613a4b816152c6565b92915050565b600081359050613a60816152dd565b92915050565b600081519050613a75816152dd565b92915050565b600082601f830112613a8c57600080fd5b8135613a9c84826020860161394c565b91505092915050565b600082601f830112613ab657600080fd5b8135613ac684826020860161398a565b91505092915050565b600081359050613ade816152f4565b92915050565b600081519050613af3816152f4565b92915050565b600060208284031215613b0b57600080fd5b6000613b19848285016139c8565b91505092915050565b600060208284031215613b3457600080fd5b6000613b42848285016139dd565b91505092915050565b60008060408385031215613b5e57600080fd5b6000613b6c858286016139c8565b9250506020613b7d858286016139c8565b9150509250929050565b600080600060608486031215613b9c57600080fd5b6000613baa868287016139c8565b9350506020613bbb868287016139c8565b9250506040613bcc86828701613acf565b9150509250925092565b60008060008060808587031215613bec57600080fd5b6000613bfa878288016139c8565b9450506020613c0b878288016139c8565b9350506040613c1c87828801613acf565b925050606085013567ffffffffffffffff811115613c3957600080fd5b613c4587828801613a7b565b91505092959194509250565b60008060408385031215613c6457600080fd5b6000613c72858286016139c8565b9250506020613c8385828601613a3c565b9150509250929050565b60008060408385031215613ca057600080fd5b6000613cae858286016139c8565b9250506020613cbf85828601613acf565b9150509250929050565b60008060208385031215613cdc57600080fd5b600083013567ffffffffffffffff811115613cf657600080fd5b613d02858286016139f2565b92509250509250929050565b600060208284031215613d2057600080fd5b6000613d2e84828501613a3c565b91505092915050565b600060208284031215613d4957600080fd5b6000613d5784828501613a51565b91505092915050565b600060208284031215613d7257600080fd5b6000613d8084828501613a66565b91505092915050565b600060208284031215613d9b57600080fd5b600082013567ffffffffffffffff811115613db557600080fd5b613dc184828501613aa5565b91505092915050565b600060208284031215613ddc57600080fd5b6000613dea84828501613acf565b91505092915050565b600060208284031215613e0557600080fd5b6000613e1384828501613ae4565b91505092915050565b6000613e288383614935565b60208301905092915050565b613e3d81615069565b82525050565b613e4c81615057565b82525050565b6000613e5d82614ecb565b613e678185614ef9565b9350613e7283614ea6565b8060005b83811015613ea3578151613e8a8882613e1c565b9750613e9583614eec565b925050600181019050613e76565b5085935050505092915050565b613eb98161507b565b82525050565b6000613eca82614ed6565b613ed48185614f0a565b9350613ee48185602086016150ec565b613eed81615287565b840191505092915050565b6000613f0382614ee1565b613f0d8185614f26565b9350613f1d8185602086016150ec565b613f2681615287565b840191505092915050565b6000613f3c82614ee1565b613f468185614f37565b9350613f568185602086016150ec565b80840191505092915050565b60008154613f6f8161511f565b613f798186614f37565b94506001821660008114613f945760018114613fa557613fd8565b60ff19831686528186019350613fd8565b613fae85614eb6565b60005b83811015613fd057815481890152600182019150602081019050613fb1565b838801955050505b50505092915050565b6000613fee600f83614f26565b91507f496e76616c6964206164647265737300000000000000000000000000000000006000830152602082019050919050565b600061402e602b83614f26565b91507f455243373231456e756d657261626c653a206f776e657220696e646578206f7560008301527f74206f6620626f756e64730000000000000000000000000000000000000000006020830152604082019050919050565b6000614094603283614f26565b91507f4552433732313a207472616e7366657220746f206e6f6e20455243373231526560008301527f63656976657220696d706c656d656e74657200000000000000000000000000006020830152604082019050919050565b60006140fa602683614f26565b91507f4f776e61626c653a206e6577206f776e657220697320746865207a65726f206160008301527f64647265737300000000000000000000000000000000000000000000000000006020830152604082019050919050565b6000614160601c83614f26565b91507f4552433732313a20746f6b656e20616c7265616479206d696e746564000000006000830152602082019050919050565b60006141a0601c83614f26565b91507f6d6178204e4654207065722061646472657373206578636565646564000000006000830152602082019050919050565b60006141e0602483614f26565b91507f4552433732313a207472616e7366657220746f20746865207a65726f2061646460008301527f72657373000000000000000000000000000000000000000000000000000000006020830152604082019050919050565b6000614246601983614f26565b91507f4552433732313a20617070726f766520746f2063616c6c6572000000000000006000830152602082019050919050565b6000614286602c83614f26565b91507f4552433732313a206f70657261746f7220717565727920666f72206e6f6e657860008301527f697374656e7420746f6b656e00000000000000000000000000000000000000006020830152604082019050919050565b60006142ec603883614f26565b91507f4552433732313a20617070726f76652063616c6c6572206973206e6f74206f7760008301527f6e6572206e6f7220617070726f76656420666f7220616c6c00000000000000006020830152604082019050919050565b6000614352602a83614f26565b91507f4552433732313a2062616c616e636520717565727920666f7220746865207a6560008301527f726f2061646472657373000000000000000000000000000000000000000000006020830152604082019050919050565b60006143b8602983614f26565b91507f4552433732313a206f776e657220717565727920666f72206e6f6e657869737460008301527f656e7420746f6b656e00000000000000000000000000000000000000000000006020830152604082019050919050565b600061441e601683614f26565b91507f6d6178204e4654206c696d6974206578636565646564000000000000000000006000830152602082019050919050565b600061445e602483614f26565b91507f6d6178206d696e7420616d6f756e74207065722073657373696f6e206578636560008301527f65646564000000000000000000000000000000000000000000000000000000006020830152604082019050919050565b60006144c4602083614f26565b91507f4552433732313a206d696e7420746f20746865207a65726f20616464726573736000830152602082019050919050565b6000614504601583614f26565b91507f6f6e6c79203120666f722057686974652d4c69737400000000000000000000006000830152602082019050919050565b6000614544602c83614f26565b91507f4552433732313a20617070726f76656420717565727920666f72206e6f6e657860008301527f697374656e7420746f6b656e00000000000000000000000000000000000000006020830152604082019050919050565b60006145aa602083614f26565b91507f4f776e61626c653a2063616c6c6572206973206e6f7420746865206f776e65726000830152602082019050919050565b60006145ea601683614f26565b91507f74686520636f6e747261637420697320706175736564000000000000000000006000830152602082019050919050565b600061462a602983614f26565b91507f4552433732313a207472616e73666572206f6620746f6b656e2074686174206960008301527f73206e6f74206f776e00000000000000000000000000000000000000000000006020830152604082019050919050565b6000614690602f83614f26565b91507f4552433732314d657461646174613a2055524920717565727920666f72206e6f60008301527f6e6578697374656e7420746f6b656e00000000000000000000000000000000006020830152604082019050919050565b60006146f6600d83614f26565b91507f6e6f7420616464726573732030000000000000000000000000000000000000006000830152602082019050919050565b6000614736602183614f26565b91507f4552433732313a20617070726f76616c20746f2063757272656e74206f776e6560008301527f72000000000000000000000000000000000000000000000000000000000000006020830152604082019050919050565b600061479c600083614f1b565b9150600082019050919050565b60006147b6601283614f26565b91507f696e73756666696369656e742066756e647300000000000000000000000000006000830152602082019050919050565b60006147f6603183614f26565b91507f4552433732313a207472616e736665722063616c6c6572206973206e6f74206f60008301527f776e6572206e6f7220617070726f7665640000000000000000000000000000006020830152604082019050919050565b600061485c602c83614f26565b91507f455243373231456e756d657261626c653a20676c6f62616c20696e646578206f60008301527f7574206f6620626f756e647300000000000000000000000000000000000000006020830152604082019050919050565b60006148c2601783614f26565b91507f75736572206973206e6f742077686974656c69737465640000000000000000006000830152602082019050919050565b6000614902601b83614f26565b91507f6e65656420746f206d696e74206174206c656173742031204e465400000000006000830152602082019050919050565b61493e816150d3565b82525050565b61494d816150d3565b82525050565b600061495f8286613f31565b915061496b8285613f31565b91506149778284613f62565b9150819050949350505050565b600061498f8261478f565b9150819050919050565b60006020820190506149ae6000830184613e43565b92915050565b60006020820190506149c96000830184613e34565b92915050565b60006080820190506149e46000830187613e43565b6149f16020830186613e43565b6149fe6040830185614944565b8181036060830152614a108184613ebf565b905095945050505050565b60006020820190508181036000830152614a358184613e52565b905092915050565b6000602082019050614a526000830184613eb0565b92915050565b60006020820190508181036000830152614a728184613ef8565b905092915050565b60006020820190508181036000830152614a9381613fe1565b9050919050565b60006020820190508181036000830152614ab381614021565b9050919050565b60006020820190508181036000830152614ad381614087565b9050919050565b60006020820190508181036000830152614af3816140ed565b9050919050565b60006020820190508181036000830152614b1381614153565b9050919050565b60006020820190508181036000830152614b3381614193565b9050919050565b60006020820190508181036000830152614b53816141d3565b9050919050565b60006020820190508181036000830152614b7381614239565b9050919050565b60006020820190508181036000830152614b9381614279565b9050919050565b60006020820190508181036000830152614bb3816142df565b9050919050565b60006020820190508181036000830152614bd381614345565b9050919050565b60006020820190508181036000830152614bf3816143ab565b9050919050565b60006020820190508181036000830152614c1381614411565b9050919050565b60006020820190508181036000830152614c3381614451565b9050919050565b60006020820190508181036000830152614c53816144b7565b9050919050565b60006020820190508181036000830152614c73816144f7565b9050919050565b60006020820190508181036000830152614c9381614537565b9050919050565b60006020820190508181036000830152614cb38161459d565b9050919050565b60006020820190508181036000830152614cd3816145dd565b9050919050565b60006020820190508181036000830152614cf38161461d565b9050919050565b60006020820190508181036000830152614d1381614683565b9050919050565b60006020820190508181036000830152614d33816146e9565b9050919050565b60006020820190508181036000830152614d5381614729565b9050919050565b60006020820190508181036000830152614d73816147a9565b9050919050565b60006020820190508181036000830152614d93816147e9565b9050919050565b60006020820190508181036000830152614db38161484f565b9050919050565b60006020820190508181036000830152614dd3816148b5565b9050919050565b60006020820190508181036000830152614df3816148f5565b9050919050565b6000602082019050614e0f6000830184614944565b92915050565b6000604051905081810181811067ffffffffffffffff82111715614e3c57614e3b615258565b5b8060405250919050565b600067ffffffffffffffff821115614e6157614e60615258565b5b601f19601f8301169050602081019050919050565b600067ffffffffffffffff821115614e9157614e90615258565b5b601f19601f8301169050602081019050919050565b6000819050602082019050919050565b60008190508160005260206000209050919050565b600081519050919050565b600081519050919050565b600081519050919050565b6000602082019050919050565b600082825260208201905092915050565b600082825260208201905092915050565b600081905092915050565b600082825260208201905092915050565b600081905092915050565b6000614f4d826150d3565b9150614f58836150d3565b9250827fffffffffffffffffffffffffffffffffffffffffffffffffffffffffffffffff03821115614f8d57614f8c6151cb565b5b828201905092915050565b6000614fa3826150d3565b9150614fae836150d3565b925082614fbe57614fbd6151fa565b5b828204905092915050565b6000614fd4826150d3565b9150614fdf836150d3565b9250817fffffffffffffffffffffffffffffffffffffffffffffffffffffffffffffffff0483118215151615615018576150176151cb565b5b828202905092915050565b600061502e826150d3565b9150615039836150d3565b92508282101561504c5761504b6151cb565b5b828203905092915050565b6000615062826150b3565b9050919050565b6000615074826150b3565b9050919050565b60008115159050919050565b60007fffffffff0000000000000000000000000000000000000000000000000000000082169050919050565b600073ffffffffffffffffffffffffffffffffffffffff82169050919050565b6000819050919050565b82818337600083830152505050565b60005b8381101561510a5780820151818401526020810190506150ef565b83811115615119576000848401525b50505050565b6000600282049050600182168061513757607f821691505b6020821081141561514b5761514a615229565b5b50919050565b600061515c826150d3565b91507fffffffffffffffffffffffffffffffffffffffffffffffffffffffffffffffff82141561518f5761518e6151cb565b5b600182019050919050565b60006151a5826150d3565b91506151b0836150d3565b9250826151c0576151bf6151fa565b5b828206905092915050565b7f4e487b7100000000000000000000000000000000000000000000000000000000600052601160045260246000fd5b7f4e487b7100000000000000000000000000000000000000000000000000000000600052601260045260246000fd5b7f4e487b7100000000000000000000000000000000000000000000000000000000600052602260045260246000fd5b7f4e487b7100000000000000000000000000000000000000000000000000000000600052604160045260246000fd5b6000601f19601f8301169050919050565b6152a181615057565b81146152ac57600080fd5b50565b6152b881615069565b81146152c357600080fd5b50565b6152cf8161507b565b81146152da57600080fd5b50565b6152e681615087565b81146152f157600080fd5b50565b6152fd816150d3565b811461530857600080fd5b5056fea2646970667358221220d13cb3c64f31deb1b7e214b7286bc1bd39412c5937f42af05c491efb9fcdbb4364736f6c63430008000033608060405234801561001057600080fd5b5061002d61002261003260201b60201c565b61003a60201b60201c565b6100fe565b600033905090565b60008060009054906101000a900473ffffffffffffffffffffffffffffffffffffffff169050816000806101000a81548173ffffffffffffffffffffffffffffffffffffffff021916908373ffffffffffffffffffffffffffffffffffffffff1602179055508173ffffffffffffffffffffffffffffffffffffffff168173ffffffffffffffffffffffffffffffffffffffff167f8be0079c531659141344cd1fd0a4f28419497f9722a3daafe3b4186f6b6457e060405160405180910390a35050565b610bc08061010d6000396000f3fe6080604052600436106100555760003560e01c806351cff8d91461005a578063715018a6146100835780638da5cb5b1461009a578063e3a9db1a146100c5578063f2fde38b14610102578063f340fa011461012b575b600080fd5b34801561006657600080fd5b50610081600480360381019061007c91906107f5565b610147565b005b34801561008f57600080fd5b506100986102c7565b005b3480156100a657600080fd5b506100af61034f565b6040516100bc91906109b7565b60405180910390f35b3480156100d157600080fd5b506100ec60048036038101906100e791906107cc565b610378565b6040516100f99190610a52565b60405180910390f35b34801561010e57600080fd5b50610129600480360381019061012491906107cc565b6103c1565b005b610145600480360381019061014091906107cc565b6104b9565b005b61014f6105e2565b73ffffffffffffffffffffffffffffffffffffffff1661016d61034f565b73ffffffffffffffffffffffffffffffffffffffff16146101c3576040517f08c379a00000000000000000000000000000000000000000000000000000000081526004016101ba90610a32565b60405180910390fd5b6000600160008373ffffffffffffffffffffffffffffffffffffffff1673ffffffffffffffffffffffffffffffffffffffff1681526020019081526020016000205490506000600160008473ffffffffffffffffffffffffffffffffffffffff1673ffffffffffffffffffffffffffffffffffffffff16815260200190815260200160002081905550610275818373ffffffffffffffffffffffffffffffffffffffff166105ea90919063ffffffff16565b8173ffffffffffffffffffffffffffffffffffffffff167f7084f5476618d8e60b11ef0d7d3f06914655adb8793e28ff7f018d4c76d505d5826040516102bb9190610a52565b60405180910390a25050565b6102cf6105e2565b73ffffffffffffffffffffffffffffffffffffffff166102ed61034f565b73ffffffffffffffffffffffffffffffffffffffff1614610343576040517f08c379a000000000000000000000000000000000000000000000000000000000815260040161033a90610a32565b60405180910390fd5b61034d60006106de565b565b60008060009054906101000a900473ffffffffffffffffffffffffffffffffffffffff16905090565b6000600160008373ffffffffffffffffffffffffffffffffffffffff1673ffffffffffffffffffffffffffffffffffffffff168152602001908152602001600020549050919050565b6103c96105e2565b73ffffffffffffffffffffffffffffffffffffffff166103e761034f565b73ffffffffffffffffffffffffffffffffffffffff161461043d576040517f08c379a000000000000000000000000000000000000000000000000000000000815260040161043490610a32565b60405180910390fd5b600073ffffffffffffffffffffffffffffffffffffffff168173ffffffffffffffffffffffffffffffffffffffff1614156104ad576040517f08c379a00000000000000000000000000000000000000000000000000000000081526004016104a4906109d2565b60405180910390fd5b6104b6816106de565b50565b6104c16105e2565b73ffffffffffffffffffffffffffffffffffffffff166104df61034f565b73ffffffffffffffffffffffffffffffffffffffff1614610535576040517f08c379a000000000000000000000000000000000000000000000000000000000815260040161052c90610a32565b60405180910390fd5b600034905080600160008473ffffffffffffffffffffffffffffffffffffffff1673ffffffffffffffffffffffffffffffffffffffff16815260200190815260200160002060008282546105899190610a89565b925050819055508173ffffffffffffffffffffffffffffffffffffffff167f2da466a7b24304f47e87fa2e1e5a81b9831ce54fec19055ce277ca2f39ba42c4826040516105d69190610a52565b60405180910390a25050565b600033905090565b8047101561062d576040517f08c379a000000000000000000000000000000000000000000000000000000000815260040161062490610a12565b60405180910390fd5b60008273ffffffffffffffffffffffffffffffffffffffff1682604051610653906109a2565b60006040518083038185875af1925050503d8060008114610690576040519150601f19603f3d011682016040523d82523d6000602084013e610695565b606091505b50509050806106d9576040517f08c379a00000000000000000000000000000000000000000000000000000000081526004016106d0906109f2565b60405180910390fd5b505050565b60008060009054906101000a900473ffffffffffffffffffffffffffffffffffffffff169050816000806101000a81548173ffffffffffffffffffffffffffffffffffffffff021916908373ffffffffffffffffffffffffffffffffffffffff1602179055508173ffffffffffffffffffffffffffffffffffffffff168173ffffffffffffffffffffffffffffffffffffffff167f8be0079c531659141344cd1fd0a4f28419497f9722a3daafe3b4186f6b6457e060405160405180910390a35050565b6000813590506107b181610b5c565b92915050565b6000813590506107c681610b73565b92915050565b6000602082840312156107de57600080fd5b60006107ec848285016107a2565b91505092915050565b60006020828403121561080757600080fd5b6000610815848285016107b7565b91505092915050565b61082781610adf565b82525050565b600061083a602683610a78565b91507f4f776e61626c653a206e6577206f776e657220697320746865207a65726f206160008301527f64647265737300000000000000000000000000000000000000000000000000006020830152604082019050919050565b60006108a0603a83610a78565b91507f416464726573733a20756e61626c6520746f2073656e642076616c75652c207260008301527f6563697069656e74206d617920686176652072657665727465640000000000006020830152604082019050919050565b6000610906601d83610a78565b91507f416464726573733a20696e73756666696369656e742062616c616e63650000006000830152602082019050919050565b6000610946602083610a78565b91507f4f776e61626c653a2063616c6c6572206973206e6f7420746865206f776e65726000830152602082019050919050565b6000610986600083610a6d565b9150600082019050919050565b61099c81610b23565b82525050565b60006109ad82610979565b9150819050919050565b60006020820190506109cc600083018461081e565b92915050565b600060208201905081810360008301526109eb8161082d565b9050919050565b60006020820190508181036000830152610a0b81610893565b9050919050565b60006020820190508181036000830152610a2b816108f9565b9050919050565b60006020820190508181036000830152610a4b81610939565b9050919050565b6000602082019050610a676000830184610993565b92915050565b600081905092915050565b600082825260208201905092915050565b6000610a9482610b23565b9150610a9f83610b23565b9250827fffffffffffffffffffffffffffffffffffffffffffffffffffffffffffffffff03821115610ad457610ad3610b2d565b5b828201905092915050565b6000610aea82610b03565b9050919050565b6000610afc82610b03565b9050919050565b600073ffffffffffffffffffffffffffffffffffffffff82169050919050565b6000819050919050565b7f4e487b7100000000000000000000000000000000000000000000000000000000600052601160045260246000fd5b610b6581610adf565b8114610b7057600080fd5b50565b610b7c81610af1565b8114610b8757600080fd5b5056fea26469706673582212204e8ab707adc9ee645b828ddc4f791bd246fea3a80e8eeba1ce50ca1d3c28c2cb64736f6c63430008000033",
  "immutableReferences": {
    "111": [
      {
        "length": 32,
        "start": 3958
      },
      {
        "length": 32,
        "start": 8924
      },
      {
        "length": 32,
        "start": 11077
      }
    ]
  },
  "source": "// SPDX-License-Identifier: GPL-3.0\n\npragma solidity >=0.4.22 <0.9.0;\n\nimport \"@openzeppelin/contracts/token/ERC721/extensions/ERC721Enumerable.sol\";\nimport \"@openzeppelin/contracts/access/Ownable.sol\";\nimport \"@openzeppelin/contracts/security/PullPayment.sol\";\n\ncontract MariesCyborgs is ERC721Enumerable, Ownable, PullPayment {\n    using Strings for uint256;\n\n    string public baseURI;\n    string public baseExtension = \".json\";\n    uint256 public publicCost = 2 ether;\n    uint256 public whiteListCost = 1 ether;\n\n    uint256 public maxSupply = 2500;\n    uint256 public maxMintAmount = 25;\n    uint256 public nftPerAddressLimit = 50;\n\n    //Ebisusbay FEE : 5%\n    uint public ebisusbayFee = 5;\n    // Address is to set up\n    address public ebisusbayWallet = 0x454cfAa623A629CC0b4017aEb85d54C42e91479d;\n\n    bool public paused = false;\n    bool public onlyWhitelisted = false;\n\n    mapping(address => uint256) public addressMintedBalance;\n    mapping(address => bool) public whitelistedAddresses;\n\n    constructor(\n        string memory _name,\n        string memory _symbol,\n        string memory _initBaseURI\n    ) ERC721(_name, _symbol) {\n        setBaseURI(_initBaseURI);\n    }\n\n\n    // internal\n    function _baseURI() internal view virtual override returns (string memory) {\n        return baseURI;\n    }\n\n    // Mint Function for White-List and Public Sale\n    event MintEvent(address indexed _from, uint256 indexed mintAmount);\n\n    function mint(uint256 _mintAmount) public payable {\n        require(!paused, \"the contract is paused\");\n        uint256 supply = totalSupply();\n        require(_mintAmount > 0, \"need to mint at least 1 NFT\");\n        require(\n            _mintAmount <= maxMintAmount,\n            \"max mint amount per session exceeded\"\n        );\n        require((supply + _mintAmount) <= maxSupply, \"max NFT limit exceeded\");\n\n        if (msg.sender != owner()) {\n            if (onlyWhitelisted == true) {\n                require(verifyUser(msg.sender), \"user is not whitelisted\");\n            }\n\n            uint256 ownerMintedCount = addressMintedBalance[msg.sender];\n            require(\n                (ownerMintedCount + _mintAmount) <= nftPerAddressLimit,\n                \"max NFT per address exceeded\"\n            );\n\n            if (verifyUser(msg.sender)) {\n                require(\n                    msg.value >= whiteListCost,\n                    \"insufficient funds\"\n                );\n                require(_mintAmount == 1, \"only 1 for White-List\");\n                 addressMintedBalance[msg.sender]++;\n            _safeMint(msg.sender, supply + 1);\n            whitelistedAddresses[msg.sender] = false;\n\n            } else {\n                require(\n                    msg.value >= (publicCost * _mintAmount),\n                    \"insufficient funds\"\n                );\n                      uint amountFee = ( (publicCost * _mintAmount) * ebisusbayFee) / 100;\n                \n\n                          for (uint256 i = 1; i <= _mintAmount; i++) {\n            addressMintedBalance[msg.sender]++;\n            _safeMint(msg.sender, supply + i);\n        }\n             _asyncTransfer(ebisusbayWallet,  amountFee);\n\n            }\n        } else {\n                                      for (uint256 i = 1; i <= _mintAmount; i++) {\n            addressMintedBalance[msg.sender]++;\n            _safeMint(msg.sender, supply + i);\n        }\n        }\n\n   \n\n       \n\n        emit MintEvent(msg.sender, _mintAmount);\n    }\n\n    function walletOfOwner(address _owner)\n        public\n        view\n        returns (uint256[] memory)\n    {\n        require(_owner != address(0), \"not address 0\");\n        uint256 ownerTokenCount = balanceOf(_owner);\n        uint256[] memory tokenIds = new uint256[](ownerTokenCount);\n        for (uint256 i; i < ownerTokenCount; i++) {\n            tokenIds[i] = tokenOfOwnerByIndex(_owner, i);\n        }\n        return tokenIds;\n    }\n\n    function tokenURI(uint256 tokenId)\n        public\n        view\n        virtual\n        override\n        returns (string memory)\n    {\n        require(\n            _exists(tokenId),\n            \"ERC721Metadata: URI query for nonexistent token\"\n        );\n\n\n\n        string memory currentBaseURI = _baseURI();\n        return\n            bytes(currentBaseURI).length > 0\n                ? string(\n                    abi.encodePacked(\n                        currentBaseURI,\n                        tokenId.toString(),\n                        baseExtension\n                    )\n                )\n                : \"\";\n    }\n\n    function setBaseURI(string memory _newBaseURI) public onlyOwner {\n        baseURI = _newBaseURI;\n    }\n\n    function setBaseExtension(string memory _newBaseExtension)\n        public\n        onlyOwner\n    {\n        baseExtension = _newBaseExtension;\n    }\n\n    function pause(bool _state) public onlyOwner {\n        paused = _state;\n    }\n\n    function withdraw() public payable onlyOwner {\n        (bool os, ) = payable(owner()).call{value: address(this).balance}(\"\");\n        require(os);\n    }\n\n    // White List\n\n    function setAllowList(address[] calldata addresses) public onlyOwner {\n          \n        for (uint256 i = 0; i < addresses.length; i++) {\n             require(addresses[i] != address(0), \"Invalid address\");\n            whitelistedAddresses[addresses[i]] = true;\n        }\n    }\n\n    function verifyUser(address _whitelistedAddress)\n        public\n        view\n        returns (bool)\n    {\n        require(_whitelistedAddress != address(0), \"not address 0\");\n        return whitelistedAddresses[_whitelistedAddress];\n    }\n\n    function setOnlyWhitelisted(bool _state) public onlyOwner {\n        onlyWhitelisted = _state;\n    }\n\n    function getBalance() public view onlyOwner returns(uint256){\n        return address(this).balance;\n    }\n}\n",
  "sourcePath": "/home/romain/dev/marieNft/contracts/MariesCyborgs.sol",
  "compiler": {
    "name": "solc",
    "version": "0.8.0+commit.c7dfd78e.Emscripten.clang"
  },
  "schemaVersion": "3.4.4",
  "updatedAt": "2022-01-19T20:37:12.505Z",
  "networkType": "ethereum",
  "devdoc": {
    "kind": "dev",
    "methods": {
      "approve(address,uint256)": {
        "details": "See {IERC721-approve}."
      },
      "balanceOf(address)": {
        "details": "See {IERC721-balanceOf}."
      },
      "getApproved(uint256)": {
        "details": "See {IERC721-getApproved}."
      },
      "isApprovedForAll(address,address)": {
        "details": "See {IERC721-isApprovedForAll}."
      },
      "name()": {
        "details": "See {IERC721Metadata-name}."
      },
      "owner()": {
        "details": "Returns the address of the current owner."
      },
      "ownerOf(uint256)": {
        "details": "See {IERC721-ownerOf}."
      },
      "payments(address)": {
        "details": "Returns the payments owed to an address.",
        "params": {
          "dest": "The creditor's address."
        }
      },
      "renounceOwnership()": {
        "details": "Leaves the contract without owner. It will not be possible to call `onlyOwner` functions anymore. Can only be called by the current owner. NOTE: Renouncing ownership will leave the contract without an owner, thereby removing any functionality that is only available to the owner."
      },
      "safeTransferFrom(address,address,uint256)": {
        "details": "See {IERC721-safeTransferFrom}."
      },
      "safeTransferFrom(address,address,uint256,bytes)": {
        "details": "See {IERC721-safeTransferFrom}."
      },
      "setApprovalForAll(address,bool)": {
        "details": "See {IERC721-setApprovalForAll}."
      },
      "supportsInterface(bytes4)": {
        "details": "See {IERC165-supportsInterface}."
      },
      "symbol()": {
        "details": "See {IERC721Metadata-symbol}."
      },
      "tokenByIndex(uint256)": {
        "details": "See {IERC721Enumerable-tokenByIndex}."
      },
      "tokenOfOwnerByIndex(address,uint256)": {
        "details": "See {IERC721Enumerable-tokenOfOwnerByIndex}."
      },
      "tokenURI(uint256)": {
        "details": "See {IERC721Metadata-tokenURI}."
      },
      "totalSupply()": {
        "details": "See {IERC721Enumerable-totalSupply}."
      },
      "transferFrom(address,address,uint256)": {
        "details": "See {IERC721-transferFrom}."
      },
      "transferOwnership(address)": {
        "details": "Transfers ownership of the contract to a new account (`newOwner`). Can only be called by the current owner."
      },
      "withdrawPayments(address)": {
        "details": "Withdraw accumulated payments, forwarding all gas to the recipient. Note that _any_ account can call this function, not just the `payee`. This means that contracts unaware of the `PullPayment` protocol can still receive funds this way, by having a separate account call {withdrawPayments}. WARNING: Forwarding all gas opens the door to reentrancy vulnerabilities. Make sure you trust the recipient, or are either following the checks-effects-interactions pattern or using {ReentrancyGuard}.",
        "params": {
          "payee": "Whose payments will be withdrawn."
        }
      }
    },
    "version": 1
  },
  "userdoc": {
    "kind": "user",
    "methods": {},
    "version": 1
  }
}